:020000040800F2
:10000000E0540020E9020008FD3300080D26000836
:100010007F3300083F060008653C00080000000030
:10002000000000000000000000000000290200089D
:10003000050A000800000000850200082D350008B0
:100040000303000803030008030300080303000878
:100050000303000803030008030300080303000868
:10006000030300080303000803030008490900080C
:100070000303000803030008030300080303000848
:1000800003030008550900080303000803030008E0
:100090000303000803030008030300080303000828
:1000A0000303000803030008030300080303000818
:1000B000ED350008F93500080303000803030008C4
:1000C00003030008030300080303000803030008F8
:1000D00003030008030300080303000803030008E8
:1000E00003030008030300080303000803030008D8
:1000F0000303000805360008030300080303000893
:1001000003030008030300080303000803030008B7
:1001100003030008030300080303000803030008A7
:100120000303000803030008030300080303000897
:100130000303000803030008030300080303000887
:100140000303000803030008030300080303000877
:100150000303000803030008030300080303000867
:100160000303000803030008030300080303000857
:100170000303000803030008030300080000000055
:10018000030300080303000800F002F800F03CF845
:100190000AA090E8000C82448344AAF10107DA45E2
:1001A00001D100F031F8AFF2090EBAE80F0013F0F8
:1001B000010F18BFFB1A43F0010318475C560000FB
:1001C0007C560000103A24BF78C878C1FAD852078C
:1001D00024BF30C830C144BF04680C6070470000C1
:1001E0000023002400250026103A28BF78C1FBD840
:1001F000520728BF30C148BF0B6070471FB505F0DC
:10020000B5FA1FBD10B510BD00F0E4F91146FFF7B7
:10021000F5FF03F065FD00F002FA03B4FFF7F2FF0B
:1002200003BC00F005FA00002C4B19680868B0E820
:10023000F04F80F30988BFF36F8F4FF0000080F319
:10024000118870470000000008480068006880F3CB
:1002500008884FF0000080F3148862B661B6BFF3DF
:100260004F8FBFF36F8F00DF00BF00BF08ED00E0CE
:10027000DFF80C00016841F470010160704700BFB5
:1002800088ED00E0EFF30980BFF36F8F134B1A681E
:100290001EF0100F08BF20ED108A20E9F04F10600B
:1002A00009B44FF0500080F31188BFF34F8FBFF3B4
:1002B0006F8F04F0FBFC4FF0000080F3118809BC45
:1002C00019680868B0E8F04F1EF0100F08BFB0ECD6
:1002D000108A80F30988BFF36F8F704748000020B1
:1002E000EFF3058070470000094880470948004740
:1002F000FEE7FEE7FEE7FEE7FEE7FEE7FEE7FEE7D6
:10030000FEE7FEE704480549054A064B7047000032
:10031000DD35000889010008E04E0020E05400208F
:10032000E0500020E050002053EA020C00F0698009
:100330002DE9F04B4FF00006002B1FBFB3FA83F5F9
:1003400003FA05F424FA05F65E4012BF1643B2FA2A
:1003500082F502FA05F4C5F120051EBF22FA05FC5C
:1003600044EA0C04203556EA044C4FEA144418BF02
:10037000641C4FF000084FF00009904271EB030C31
:1003800039D3002919BFB1FA81F701FA07F6B0FA9B
:1003900080F700FA07F6C7F120071EBF20FA07FC16
:1003A00046EA0C062037B6FBF4FCA7EB0507103F26
:1003B00007F01F0BCBF120060CFA0BFB2CFA06F60C
:1003C00044BFB3460026202FA4BF5E464FF0000B6B
:1003D0005BEA060C08BF4FF0010B19EB0B09ABFBF6
:1003E000027C48EB0608C01B06FB02CC0BFB03CCCF
:1003F00071EB0C01C1E70B46024641464846BDE899
:10040000F08B13B54FF000004FF00001AFF3008008
:10041000BDE81C407047032A40F2308010F0030C06
:1004200000F0158011F8013BBCF1020F624498BF47
:1004300011F801CB00F8013B38BF11F8013BA2F1E4
:10044000040298BF00F801CB38BF00F8013B11F05F
:10045000030300F06280083AC0F0088051F8043BC2
:10046000083A51F804CBA0E80810F5E7121D5CBF6C
:1004700051F8043B40F8043BAFF30080D20724BF9F
:1004800011F8013B11F801CB48BF11F8012B24BF33
:1004900000F8013B00F801CB48BF00F8012B704782
:1004A00002F0FF0343EA032242EA024200F069B885
:1004B0004FF0000200B5134694469646203922BFFD
:1004C000A0E80C50A0E80C50B1F12001BFF4F7AF48
:1004D000090728BFA0E80C5048BF0CC05DF804EB2A
:1004E000890028BF40F8042B08BF704748BF20F898
:1004F000022B11F0804F18BF00F8012B7047704796
:100500007047704710B500F05DF8006810BD10B579
:10051000044600F057F8046010BD10B5203AC0F052
:100520000B80B1E81850203AA0E81850B1E81850F4
:10053000A0E81850BFF4F5AF5FEA027C24BFB1E831
:100540001850A0E8185044BF18C918C0BDE81040A2
:100550005FEA827C24BF51F8043B40F8043B08BFAB
:100560007047D20728BF31F8023B48BF11F8012B72
:1005700028BF20F8023B48BF00F8012B70474FF01E
:1005800000020429C0F0128010F0030C3FF492AF77
:10059000CCF1040CBCF1020F18BF00F8012BA8BF6E
:1005A00020F8022BA1EB0C01FFF784BF5FEAC17CAE
:1005B00024BF00F8012B00F8012B48BF00F8012BE5
:1005C0007047000000487047804E00200048704788
:1005D000804E00207546FFF7F9FFAE4605006946DC
:1005E000534620F00700854618B020B5FFF78AFE75
:1005F000BDE820404FF000064FF000074FF0000824
:100600004FF0000B21F00701AC46ACE8C009ACE8A4
:10061000C009ACE8C009ACE8C0098D46704710B508
:100620000446AFF300802046BDE81040FFF7F5BD5B
:1006300001491820ABBEFEE7260002007047FEE726
:1006400010B500242DED028B82B080209FED228A10
:10065000DFED228ACDE90004F0EE480AB0EE680A28
:100660001F4B22461F49204802F08AFE1020CDE988
:100670000004F0EE480AB0EE680A1C4B00221C4948
:100680001C4802F07DFEB0EE481ADFED1B0AB0EE0A
:10069000680A1A4803F000F91848B0EE041ADFEDB2
:1006A000180A9FED180A203003F0F6F813489FED62
:1006B000160A203080ED030A14489FED150A0470D5
:1006C00080ED010A80ED020A80ED030A80ED040A44
:1006D00002B0BDEC028B10BDABAA2645ABAAA64565
:1006E00000000240840200204C0500200008024067
:1006F000CC02002070050020555585430C050020D4
:1007000058CAB23DF90FC93F6F12033A0C000020DE
:1007100000000000DFED140A9FED141A10B560EE22
:10072000200A13482DED028B80EE810AD0ED050AD8
:10073000203030EE808A03F035F9B0EE480A0C48DC
:1007400003F0CEF80B480178002909D00849203180
:1007500091ED050A80ED010A9FED070A80ED020A7E
:10076000BDEC028B10BD0000000048458784854326
:100770000C0500200C00002000000000024880ED65
:10078000030AC0ED040A70470C00002008B10121E3
:1007900000E0002103489FED040A017080ED020A89
:1007A000704700000C0000200000000010B52DED87
:1007B000048B9FED519ADFED518A5148B0EE688A63
:1007C00003F086F830B9B0EE490A4D4803F0F8F866
:1007D000B0EE408A9FED4B0A28EE000ADFED4A0A90
:1007E0004748F0EE689A80EE208A203003F070F8D7
:1007F00038B94348B0EE490A203003F0E1F8F0EE92
:10080000409A4248017859B390ED010AD0ED040AAC
:1008100070EE608A90ED020ADFED3D0A08EE890A6B
:1008200080ED020A9FED3B1AB4EEC10AF1EE10FA18
:1008300002D2B0EE410A06E0B4EEE00AF1EE10FAA0
:1008400001DDB0EE600ADFED340A80ED020A3349C3
:1008500040EE208A18EE900A884202D9DFED308AF5
:1008600006E018EE900A2F49884201DDDFED2E8A5E
:10087000DFED2E1AB0EE480A79EEA80AB0EE481A5B
:100880009FED2B8A00EEE10A00EEA11ADFED290AA6
:10089000B4EEE00AF1EE10FA02D2B0EE600A06E021
:1008A000B4EEC80AF1EE10FA01DDB0EE480AB4EE7B
:1008B000E01AF1EE10FA02D2B0EE608A06E0B4EE71
:1008C000C81AF1EE10FA01DCB0EE418ADFED1A8AA7
:1008D0004FF448642146F0EE680A184802F016FE0C
:1008E000F0EE680AB0EE480ABDEC048B2146BDE884
:1008F0001040134802F00ABE6F12833A0000000055
:100900000C05002087848543000048450C0000202A
:1009100066305D3F66305DBFCDCCCC3D84B8B2BDA6
:1009200084B8B2BD84B8B23D84B8B23D0000A642DE
:100930008B87DE438B87DEC30000AA424C05002074
:1009400070050020FFF732BF014800F073B80000C7
:10095000C4010020014800F06DB80000240200200E
:1009600001681823CAB2103AB2FBF3F2054B6FF3D9
:100970000901032A9B5CC36500D9091D81650846EE
:1009800070470000D057000810B5014600208B6961
:100990008A6A4FF0C07453B1B3F5005F15D072B1DD
:1009A000012A0CD0022A0AD0032A09D104E01AB184
:1009B000012A06D0022A03D1C96AC90100D5012043
:1009C00010BDC96AA142FAD010BD002AF7D0012A91
:1009D000F2D0022AF3D0032AF3D010BD30B5046858
:1009E000256825F480252560046863608368402BB2
:1009F000036803D099600068C26030BD9A600068E7
:100A0000C16030BD704772B6FEE790F8351002291C
:100A100003D08021416501207047052180F8351001
:100A20000068016821F00101016000207047406DFD
:100A3000704700002DE9F84304464FF00009CDF857
:100A4000009063484FF41651A56D0068B0FBF1F7B4
:100A50002E6894F85C10082000FA01F131420FD0A2
:100A600021680A6852070BD50A6822F004020A605E
:100A700094F85C108840A860606D40F001006065EB
:100A800094F85C104FF0010808FA01F0304208D0E9
:100A900021684969090604D5A860606D40F002002C
:100AA000606594F85C1004208840304208D02168CA
:100AB0000968890704D5A860606D40F0040060658E
:100AC00094F85C1010208840304218D021680968E2
:100AD000090714D5A86020680168490304D5006897
:100AE000000308D5A16C07E00168C90503D40168BB
:100AF00021F008010160216C09B12046884794F873
:100B00005C1020208840304231D021680968C90635
:100B10002DD5A86094F8350005282068016806D016
:100B2000490347D5006800031DD4616C1CE021F027
:100B3000160101602068416921F080014161206C4B
:100B400008B9A06C20B12068016821F0080101609B
:100B500094F85C103F208840A86084F8358084F8C1
:100B60003490216D1FE0E16B09B120468847606D2C
:100B700000282BD0606DC00714D0052084F8350004
:100B80002068016821F0010101600098401C00907C
:100B9000B84203D820680068C007F6D184F83580D1
:100BA00084F83490E16C002910D001B02046BDE8F3
:100BB000F04308470168C905D5D4016821F0100148
:100BC000016084F8358084F83490CCE7BDE8F88380
:100BD000440000202DE9F041044600F0ADF906463E
:100BE0005CB1022084F83500002584F83450206878
:100BF000016821F0010101600DE00120BDE8F081F4
:100C000000F09AF9801B052805D920206065032093
:100C100084F83500F2E720680068C007F0D1226848
:100C2000116820480140D4E901031843D4E9033690
:100C30003343184363691843A3691843E3691843AE
:100C4000236A18430843616A042903D1D4E90B13CA
:100C500019430843106020684069666A20F0070164
:100C600030460E43012704280CD1A06A0643E06AEF
:100C700040B12046FFF788FE20B14020606584F82F
:100C80003570BAE7206846612046FFF769FE94F8A0
:100C90005C203F2191408160656584F835700020BB
:100CA000ACE700003F8010F02DE9F0410446866D6E
:100CB00090F83400002501280DD0012084F834007C
:100CC00094F835700020012F07D084F834000225F5
:100CD0002846BDE8F0810220FBE7022784F8357042
:100CE00060652046FFF77AFE94F85C103F2088404C
:100CF000B0602068016841F016010160206C20B1ED
:100D00002068016841F0080101602068016841F035
:100D100001010160DCE7000070B5044600F00CF949
:100D20000546601C02D004480078044400F004F931
:100D3000401BA042FAD370BD380000202DE9F84FC7
:100D4000DFF8BCA10022012503264FF00F090AF1AC
:100D5000040BAAF1040E00BF0B6805FA02F423404D
:100D6000A34270D10F7907F00307012F01D0022FA2
:100D700016D187684FEA420806FA08FC27EA0C07F2
:100D8000D1F80CC00CFA08FC4CEA070CC0F808C0FB
:100D90004768A7430C79C4F3001494403C43446073
:100DA0000C79E443A4070AD0C4684FEA420C06FA5F
:100DB0000CF7BC438F6807FA0CF72743C7600C7920
:100DC00004F00304022C12D1D40800EB840CDCF8EC
:100DD00020405707FF0E09FA07F824EA0804D1F863
:100DE000108008FA07F848EA0408CCF82080046864
:100DF0004FEA420C06FA0CF7BC430F7907F00307E1
:100E000007FA0CF7274307604C6814F4403F70D092
:100E10003C4C276847F480472760246822F003078A
:100E200004F480440094384C07EB040CDCF80848C8
:100E300097074FEA177809FA08F7BC43334FB842CF
:100E400002D1002724E054E0314FB84201D10127FC
:100E50001EE0304FB84201D1022719E02E4FB842B0
:100E600001D1032714E02D4FB84201D104270FE030
:100E70002B4FB84201D105270AE02A4FB84201D1D1
:100E8000062705E0284FB84201D1072700E00827D0
:100E900007FA08F72743CCF80878DAF800405746F5
:100EA000D1F804C09C435FEACC2C00D51C433C60C5
:100EB000DBF800405F46D1F804C09C435FEA8C2C0D
:100EC00000D51C433C60DEF800407746D1F804C0F2
:100ED0009C435FEA8C3C00D51C433C60084F083FB4
:100EE0003C68D1F804C09C435FEACC3C00D51C436D
:100EF0003C60521C102AFFF42FAFBDE8F88F0000B1
:100F0000083C0140443802400030014000000240EB
:100F10000004024000080240000C024000100240A1
:100F20000014024000180240001C02400AB1816116
:100F300070470904FBE70000014880687047000023
:100F4000380000207047000070B5040025D094F8E8
:100F50003D00002520B984F83C50204600F046FBB7
:100F6000242084F83D002068016821F0010101601F
:100F70002068016841F4004101602068016821F4A3
:100F80000041016000F07EFD4D4A6168914201D848
:100F90004C4900E04C49884201D2012070BD4B49C8
:100FA0002368B0FBF1F15E6826F03F060E435E60F9
:100FB0006368934206D94FF4967359434FF47A739A
:100FC000B1FBF3F12368491C1E6A26F03F0631434A
:100FD00019626168914210D84900401EB0FBF1F2DD
:100FE000521CC2F30B02042A01D2042022E0B0FBFF
:100FF000F1F0401CC0F30B001CE0A268F2B301EB5F
:10100000C10303EB0116431EB3FBF6F35B1C43F471
:1010100080431B0549D092B301EBC10202EB0111E1
:10102000401EB0FBF1F0401CC0F30B0040F48040C8
:1010300040F400402168CA694CF6FF739A4310439C
:10104000C861D4E9071001432068026822F0C00299
:1010500011430160D4E9030101432068826848F22A
:10106000FF339A4311438160D4E9050108432168A5
:10107000CA6822F0FF021043C86001E00EE016E0EB
:101080002068016841F0010101602564202084F896
:101090003D00256384F83E50002070BD01EB410601
:1010A000431EB3FBF6F35B1CB3E70120C2E701EB81
:1010B0004101401EB0FBF1F0401CC0F30B00B7E74C
:1010C000A086010080841E0000093D0040420F0000
:1010D0007047000000680349884202D1024801F0CD
:1010E00017BE704700540040940500202DE9FF4FC3
:1010F00083B09A46DDE9118793460446DDF84090B7
:10110000FFF71AFF054694F83D00202870D11923F7
:10111000012274492046009501F038FC0028F5D1E1
:1011200094F83C00012863D0012084F83C0020683A
:101130000168C90703D1016841F00101016020681D
:10114000016821F400610160222084F83D00402004
:1011500084F83E0000262664C4F82490A4F82A806F
:10116000608D20856048E062CDE9007553465A469F
:101170002046049901F00CFB002879D1208DD0B1D4
:10118000012821D00228206824D04169806900907C
:10119000208D032866D801282BD0544902283B46CD
:1011A0004FF00002009557D08846204601F0EEFB34
:1011B00000285DD13AE020684169816900910168A9
:1011C00041F4007101607DE02068016821F48061D4
:1011D0000160F0E7016821F4806101602068016826
:1011E00041F400610160206841698069009069E014
:1011F00075E02A463946204601F06EFC88BB54E073
:101200002068016841F40071016020680069616A2A
:101210000870606A401C6062218D491E2185618DC5
:10122000491E618521680969017042E020680168F2
:1012300021F48061016020680069616A0870606A59
:10124000401C6062208D401E2085608D401E6085A0
:101250003B46002241460095204601F097FB00B92D
:10126000CEE705E02A463946204601F035FC18B1A4
:10127000012007B0BDE8F08F20680069616A08703E
:10128000606A401C6062208D401E81B22185608DA5
:10129000401E608520684269D243520712D4032958
:1012A00003D1016821F48061016020680069616AEE
:1012B0000870606A401C6062208D401E2085608D31
:1012C000401E6085208D00287FF462AF202084F8C6
:1012D0003D0084F83E6084F83C600020C9E70220AD
:1012E000C7E70000020010000000FFFF040001003B
:1012F0002DE9FC5F994692468B460446DDF8308026
:10130000FFF71AFE00250646009594F83D002028B8
:1013100028D1664846F2A81120270068B0FBF1F0FA
:1013200000EBC00101EB001000900098401E0090FF
:1013300010D020688069C0438007F6D594F83C003F
:1013400001280FD0012084F83C0020680168C907FB
:101350000BD00EE044F8305F6773A573206940F04E
:10136000200020610220BDE8FC9F016841F00101DE
:1013700001602068016821F400610160222084F886
:101380003D00402084F83E002564C4F824800D9878
:101390006085608D20854648E062C4F844B0C4F89A
:1013A00048A0C4F84C902565208D4FF023080028F4
:1013B00063D0A06B00B33F49C163A16B3E48C864D2
:1013C000A06B0564A06B4564A06B8564A06B05658C
:1013D0002168238D1031626AA06BFFF765FCA0B114
:1013E00084F83D7084F83E5054F8400F40F01000EF
:1013F00044F80409257049E084F83D7084F83E50B3
:1014000054F8400F40F08000F2E7CDE900864B46EB
:1014100052465946204601F0BBF988B1A06BFFF750
:10142000F4FAA06BC5632068016821F48061016053
:10143000258565852068016821F00101016025E0AE
:10144000208D0128206813D0416841F4805141600B
:10145000206841698169009184F83C50416841F4F9
:10146000807141602068416841F4006141601BE087
:10147000016821F480610160EAE7CDE900864B460E
:1014800052465946204601F083F908B101206AE727
:101490002068416981690091016841F4007101602F
:1014A00084F83D7084F83C5000205CE74400002044
:1014B0000000FFFF4F2600080F2600082DE9FF4F10
:1014C00083B09A46DDE9119793460446DDF84080E3
:1014D000FFF732FD054694F83D0020287FD11923FF
:1014E000012240492046009501F050FA002876D1AB
:1014F00094F83C00012872D0012084F83C00206858
:101500000168C90703D1016841F001010160206849
:10151000016821F400610160212084F83D00402031
:1015200084F83E0000262664C4F82480A4F82A909B
:10153000608D20852C48E062CDE9007553465A46FF
:101540002046049901F0A2F970B930E02A463946E4
:10155000204601F0F9FA58B1206C042804D1206823
:10156000016841F400710160012007B0BDE8F08F0F
:10157000606A216800780861606A401C6062218DA1
:10158000491E89B22185628D521E62852268536987
:10159000DB435B070BD469B100781061606A401CC3
:1015A0006062208D401E2085608D401E6085208DEC
:1015B0000028CBD12A463946204601F0BBF9002845
:1015C000CAD154F83D0B016841F40071016020203C
:1015D00004F81E09E67766770020C6E7FFE70220D9
:1015E000C3E70000020010000000FFFF2DE9F041FA
:1015F00086B0064614216846FEF75AFF564DDFF8BE
:1016000054C13368544812270321544A103500242A
:101610004FF0040863454CD1036843F002030360B4
:101620000068CDE9024100F002000590C020CDE93C
:101630000007CDF8108069461046FFF77FFB286849
:1016400040F4001028602868464D00F40010059012
:10165000434828604705C5E901744FF48068C5E92F
:1016600003486C61AC61EC612C6228466C62FFF748
:10167000B1FA08B1FFF7C7F9B563AE63394D384821
:1016800060359030E5E802074020A5E811013548B3
:1016900045F814496030AC61EC612C626C62FFF774
:1016A00099FA08B1FFF7AFF97563AE6306B0BDE80C
:1016B000F0812D4EB3421BD1036843F00203036057
:1016C0000068CDE9024100F0020005904FF440604F
:1016D000CDE90007CDF8108069461046FFF72EFBD4
:1016E000286840F480002860286800F480002FE01B
:1016F0001E4A9342DAD1026842F004020260026894
:1017000002F004020592026842F0010202600068E1
:101710000E4600F0010005905815CDE9000702AA19
:10172000694682E850011248FFF708FB4FF48070C9
:10173000CDE9000702AA694682E850010D48FFF78B
:10174000FDFA286840F400002860286800F40000D2
:101750000590ABE7005400403038024000040240DE
:1017600010600240C401002000580040005C0040AE
:10177000000802400000024070477047024881683C
:101780000278114481607047380000200B4810B582
:10179000016841F400710160016841F480610160F9
:1017A000016841F480710160032000F09FF80F2070
:1017B00000F006F800F050F8002010BD003C024098
:1017C00030B505461F4887B00024016841F4807198
:1017D0000160006806A900F48070009001A800F084
:1017E00031F90498A8B100F04DF940001649174AA4
:1017F000B0FBF1F11648491E026040F2E732C0E941
:101800000324C0E90114846100F08CFB040003D0C0
:1018100015E000F037F9E9E70D4800F0B1FB0400EE
:101820000DD12D2000F034F8102D07D200222946CA
:101830002D2000F03BF80748056000E0012407B0C8
:10184000204630BD4038024040420F00002000409A
:10185000C40400203C0000200C4882B0016841F420
:1018600080410160006800F4804000900748001F3C
:10187000016841F0805101600068002200F0805052
:1018800000900F21901E02B000F010B844380240C2
:10189000002809DB00F01F0201219140400980006F
:1018A00000F1E020C0F8001170470000F0B40E4BCA
:1018B0001B680C46C3F30223C3F10705042D00D9AE
:1018C0000425191D072901D2002300E0DB1E012693
:1018D00006FA05F1491E214099409E40761E1640A9
:1018E0003143F0BC02F0BFB90CED00E0064900F056
:1018F000070208684FF6FF03184040EA0220034A37
:1019000010430860704700000CED00E00000FA058D
:101910002DE9F0470E46050065D0DFF81481D8F8B0
:101920000000F7B200F00700B04207D288F800705C
:10193000D8F8000000F00700B04254D128683D4CB0
:10194000810712D5400703D5206840F4E05020609D
:101950002878000703D5206840F4604020602068A4
:10196000A96820F0F000084320602878C0072DD037
:10197000304968680839012812D0022813D003289A
:1019800011D00968890700292DDA216821F00301A7
:1019900001432160FFF7D0FA814641F2883A0EE018
:1019A00009688903EFE709688901ECE7FFF7C4FAE2
:1019B000A0EB0901514502D90320BDE8F08720685A
:1019C000696800F00C00B0EB810FEFD1D8F800107F
:1019D000404601F00701B14207D90770006800F0E6
:1019E0000700B04201D00120E7E72878400705D57D
:1019F0002068E96820F4E050084320602878000758
:101A000006D52068296920F4604040EAC1002060C2
:101A100000F058F82168084AC1F30311515CC8402E
:101A20000649086006480068FFF7CAFE0020C4E7C0
:101A3000003C024008380240D8570008440000200B
:101A40003C0000200F2202600C4A136803F00303DD
:101A50004360136803F0F0038360136803F4E053FA
:101A6000C36012684FF4E05303EAD20202610448F3
:101A7000006800F007000860704700000838024066
:101A8000003C02400448054900680968044AC1F363
:101A90008221515CC8407047440000200838024051
:101AA000E85700080448054900680968044AC1F37A
:101AB0004231515CC8407047440000200838024061
:101AC000E8570008154810B5006810F00C021448DB
:101AD00013D04110042A0FD0082A0ED10F4C241F16
:101AE0002268236802F03F025B0207D52068C0F33A
:101AF0008810A0FB010106E0084610BD2168C1F373
:101B00008811A1FB00010023FEF70EFC2168C1F340
:101B10000141491C4900B0FBF1F010BD08380240FA
:101B20000024F4002DE9F84F04006ED02078DFF88F
:101B30004C93C007A9F104054AD009F104000168DB
:101B4000C1F38101012908D00068C0F38100022897
:101B50000AD1D9F80000400206D52868800337D59D
:101B600060680028E1D033E06068B0F5803F10D0B5
:101B7000B0F5A02F286810D020F4803028602868A5
:101B800020F4802028606068A8B1FFF7D5F90646E8
:101B90000DE0286840F48030F4E740F480202860AD
:101BA000F7E700BFFFF7C8F9801B642873D82868DF
:101BB0008003F7D50CE0FFF7BFF9064605E000BF4C
:101BC000FFF7BAF9801B6428F0D828688003F7D49F
:101BD0002078DFF8AC8280074FF0000A3ED5A74896
:101BE000001D016811F00C0F08D00068C0F38100DF
:101BF00002280BD1D9F80000400207D428688007DA
:101C000016D5E068012800D112E033E1E068B8B1F0
:101C10000120C8F80000FFF78FF9064605E000BF75
:101C2000FFF78AF9801B0228C0D828688007F7D5FB
:101C30002868216920F0F80040EAC10028600DE022
:101C4000C8F800A0FFF778F9064604E0FFF774F93A
:101C5000801B02281FD828688007F7D42078000747
:101C600022D5864F87486169703771B101210160C3
:101C7000FFF762F9064604E0FFF75EF9801B0228D1
:101C800009D838688007F7D50EE0C0F800A0FFF744
:101C900053F9064605E082E0FFF74EF9801B022863
:101CA0007DD838688007F7D42078400768D5DFF8FA
:101CB000CCB100270BF13C0BDBF80000C0000BD4CB
:101CC000DBF8001041F08051CBF80010DBF8000089
:101CD000012700F0805000906B4E3068C00510D492
:101CE000306840F480703060FFF726F9009005E01E
:101CF000FFF722F90099401A022850D83068C00531
:101D0000F6D55E4EA0686C3601280FD005283068E5
:101D100010D020F001003060306820F00400306006
:101D2000A068B8B1FFF708F900900FE0306840F004
:101D30000100F4E740F004003060F7E7FFF7FCF83B
:101D40000099411A41F28830814266D83068800794
:101D5000F4D50EE0FFF7F0F8009007E0FFF7ECF89D
:101D60000099411A41F28830814256D83068800784
:101D7000F4D42FB1DBF8001021F08051CBF8001023
:101D8000A069C8B33D49091D0968C1F38101022951
:101D90004AD00228504607D0C8F8600000E03CE076
:101DA000FFF7CAF804463BE04746C8F86000FFF773
:101DB000C3F8064605E000BFFFF7BEF8801B022807
:101DC0002BD828688001F7D4D4E907010843A16A19
:101DD0002E4A490802EB0141626A41EA8211084336
:101DE00094F82C1040EA0161C9F80010012038660F
:101DF000FFF7A2F8044606E03EE000BFFFF79CF8BC
:101E0000001B022809D828688001F7D534E000BFFC
:101E1000FFF792F8001B022802D90320BDE8F88FD3
:101E200028688001F4D427E00128F7D0D9F8000011
:101E3000E26900F4800191421CD1226A00F03F0166
:101E4000914217D147F6C071626A0140B1EB821F1F
:101E500010D1A26A4FF0FF3300F4403103EB52027D
:101E6000B1EB024F06D194F82C1000F07060B0EB8B
:101E7000016F01D00120D1E70020CFE704380240F4
:101E800000004742800E4742007000400000FFFF04
:101E90007047704770B590F83C20012A32D0012479
:101EA00080F83C40022280F83D2003685A689D6813
:101EB00022F070060A6832435A60134B02689A4255
:101EC00014D0B2F1804F11D0104B9A420ED0104B6B
:101ED0009A420BD00F4B9A4208D00F4B9A4205D032
:101EE0000E4B9A4202D00E4B9A4204D1496825F01B
:101EF00080031943916080F83D40002180F83C1038
:101F0000084670BD022070BD000001400004004082
:101F100000080040000C0040000401400040014067
:101F20000018004010B5040003D094F83D0010B133
:101F300007E0012010BD002084F83C00204600F09E
:101F40001EF8022084F83D00211D206801F060FB8E
:101F5000012084F8460084F83E0084F83F0084F8AD
:101F6000400084F8410084F8420084F8430084F87B
:101F7000440084F8450084F83D00002010BD7047FF
:101F800090F83D10012901D001207047022180F80E
:101F90003D100168CA6842F00102CA600068114938
:101FA000884214D0B0F1804F11D00F4988420ED032
:101FB0000E4988420BD00E49884208D00D4988420C
:101FC00005D00D49884202D00C49884204D181686D
:101FD00001F00701062903D0016841F00101016009
:101FE000002070470000014000040040000800404D
:101FF000000C004000040140004001400018004077
:1020000070472DE9F04104460068C66805694FF045
:102010000007A90713D5B10711D5F91E01610120E9
:102020002077206880698007204602D0FFF7E8FF0C
:1020300004E000F0F9F8204600F0D2F927776807AD
:1020400016D5700714D521686FF0040008610220CE
:1020500020772068806910F4407F204602D0FFF787
:10206000CFFF04E000F0E0F8204600F0B9F9277750
:10207000280715D5300713D521686FF008000861CF
:10208000042020772068C0698007204602D0FFF72F
:10209000B7FF04E000F0C8F8204600F0A1F9277768
:1020A000E80616D5F00614D521686FF01000086117
:1020B000082020772068C06910F4407F204602D0B5
:1020C000FFF79EFF04E000F0AFF8204600F088F92B
:1020D0002777E80708D0F00706D021686FF00100E5
:1020E0000861204600F0E2F9280608D5300606D53A
:1020F00021686FF0800008612046FFF7C9FE68067E
:1021000008D5700606D521686FF0400008612046AA
:1021100000F0D6F9A8060AD5B00608D521686FF0F8
:10212000200008612046BDE8F041FFF7B2BEBDE8DF
:10213000F081000030B587B0044614216846FEF7F0
:10214000B7F924680022304902233048B4F1804FA7
:102150000CD02F4DAC421DD10C6844F001040C6032
:10216000096801F001010591402131E00C6844F05B
:1021700001040C60096801F0010105912021009122
:10218000CDE901320121CDE903216946FEF7D6FDF3
:1021900007B030BD1F4DAC420ED1086840F00800BA
:1021A00008600868694600F008000590A0140090D7
:1021B000CDE9013218480FE0184DAC420FD10C6840
:1021C00044F001040C60096801F0010105910F2140
:1021D0000091CDE901326946CDE90323D6E71048E5
:1021E0008442D5D1086840F010000860086869464C
:1021F00000F01000059060200090CDE9013203202E
:10220000CDE903200748C1E7303802400000024012
:102210000004004000080040000C0240000C004098
:102220000040014000100240704770B5044690F82D
:102230003C0000260D4601280FD0012084F83C0008
:102240006AB1042A1DD0082A2FD00C2A3FD00126BB
:10225000002084F83C00304670BD022070BD20682C
:1022600001F04CFA2068816941F008018161206821
:10227000816921F004018161206881692A69114323
:1022800011E0206801F06AFA2068816941F4006178
:1022900081612068816921F48061816120688169A0
:1022A0002A6941EA02218161D2E7206801F08CFAB3
:1022B0002068C16941F00801C1612068C16921F04D
:1022C0000401C1612068C1692A69114311E02068D5
:1022D00001F0AEFA2068C16941F40061C161206873
:1022E000C16921F48061C1612068C1692A6941EA3C
:1022F0000221C161ACE710B5040003D094F83D00A1
:1023000010B107E0012010BD002084F83C002046F9
:1023100000F01EF8022084F83D00211D206801F025
:1023200077F9012084F8460084F83E0084F83F00E5
:1023300084F8400084F8410084F8420084F84300A7
:1023400084F8440084F8450084F83D00002010BD66
:1023500008B501681D48B1F1804F0BD01C4A91426D
:1023600010D1016841F002010160006800F0020034
:10237000009008BD016841F001010160006800F0B3
:102380000100F5E7134A914207D1016841F00401C9
:102390000160006800F00400EAE70F4A914207D1AB
:1023A000016841F008010160006800F00800DFE703
:1023B0000A488142DDD10548001D016841F48031A1
:1023C0000160006800F48030D2E70000403802402D
:1023D0000004004000080040000C004000400140A4
:1023E0007047000010B50446022249B104290ED0FE
:1023F000082913D094F84100012816D0012010BDFF
:1024000094F83E000128F9D184F83E200FE094F8BA
:102410003F000128F2D184F83F2008E094F8400002
:102420000128EBD184F8402001E084F8412001220A
:10243000206801F055F916492068164A884201D0F3
:10244000904203D1436C43F40043436420688842C4
:1024500013D0B0F1804F10D00F4988420DD00F49F2
:1024600088420AD00E49884207D0904205D00D49D3
:10247000884202D00C49884204D1816801F00701EA
:10248000062903D0016841F001010160002010BD60
:10249000000001400004014000040040000800402A
:1024A000000C004000400140001800400068034953
:1024B000884201D1FFF762B9704700000020004058
:1024C000704770B5040004D094F84100002510B1A5
:1024D00006E0012070BD84F84050204600F024F84A
:1024E000242084F841002068C16821F40051C160B3
:1024F000204601F031FB2068016921F4904101611F
:102500002068416921F02A0141612068C16841F4D5
:102510000051C1606564202084F8410084F84200C5
:102520006563002070BD0000F0B587B0044614213B
:102530006846FDF7BDFF3049DFF8B8C027680022C4
:102540002D4B10390224032507262C48674511D14D
:102550001F6847F400371F601B6803F400330593BE
:102560000B6843F008030B60096801F0080105914E
:10257000602115E0DFF888C067451BD11F6847F46C
:1025800080271F601B6803F4802305930B6843F0CA
:1025900008030B60096801F0080105914FF44071D0
:1025A000CDE9001402AF694687E86400FEF7C6FB78
:1025B00007B0F0BD13488742FAD10F48001D0368E9
:1025C00043F020030360006800F0200005900868D5
:1025D00040F0040008600868029200F004000590D2
:1025E000C020CDE900040820CDE903506946064823
:1025F000DCE700000044004040380240000C02408C
:10260000004800400014014000080240FEE770B599
:10261000846B0025616B01B1CD63A16B01B1CD630A
:10262000FEF705FA022811D02068016821F48061C4
:1026300001606585202084F83D0084F83E50206CC0
:1026400040F0100020642046FEF77CFC70BD2DE9B0
:10265000F041846B94F83D2094F83E50E16A206884
:10266000436823F440734360636B002003B1D86375
:10267000A36B03B1D863212333EA02074FF022068C
:102680000CD036EA020701D1202D07D094F83E2065
:10269000002A21D0628D012A20D024E021684D68D3
:1026A00025F400654D6060852820292A02D02A2A59
:1026B00007D00CE0236384F83D002046FFF75DF867
:1026C00005E0266384F83D002046FFF755F82068B2
:1026D000416841F440714160BDE8F08122681368AF
:1026E00023F4806313602268536823F440735360BB
:1026F00011F5803F06D0082904D0B1F12A4F01D04E
:10270000202904D12268136843F4007313602268FF
:10271000536823F4805353602268536823F40063A2
:1027200053606085226C1AB12046FEF70BFCD3E79C
:10273000202284F83D2094F83E2084F83E00402A70
:1027400009D0082902D0202900D012202063204679
:10275000FEF7BEFCC0E720632046FEF7BBFCBBE7EC
:1027600001684A69D24352050FD46FF480624A610E
:10277000002140F8301F202242738173026942F029
:1027800004020261017301207047002070470000BD
:102790002DE9F84F0446006889460B9D016898466C
:1027A000174641F4806101602068016841F480713E
:1027B000016000954FF0011B0022594620460A9BFC
:1027C00000F0E4F84FF4007A40B120680068C005DA
:1027D00001D5C4F840A00320BDE8F88F216809F0B6
:1027E000FE0008612B46284920460A9A00F016F997
:1027F000F0BB20684169806900902A4620460A990A
:1028000000F0A2F940B1206C04283AD12068016898
:1028100041F40071016034E0FEB2B8F1010F09D05B
:102820002168380A08612A4620460A9900F08CF986
:102830000028E8D1206806612A4620460A9900F05F
:1028400083F90028DFD12068016841F480710160BC
:1028500000950022594620460A9B00F097F8002870
:10286000B3D1216809F0FF0040F00100086100E0E9
:1028700007E02B46044920460A9A00F0CFF80028CA
:10288000AAD00120A8E70000020001002DE9F843CA
:10289000044600680D46DDE908970168984616462B
:1028A00041F4807101604B4600224FF00111204637
:1028B000009700F06BF848B120680068C00502D5A9
:1028C0004FF4007020640320BDE8F883216805F010
:1028D000FE0008613B464A461549204600F09EF836
:1028E00088B920684169806900903A464946204687
:1028F00000F02AF948B1206C042804D1206801684E
:1029000041F4007101600120DEE7F5B2B8F1010F7A
:1029100009D02168300A08613A464946204600F04D
:1029200013F90028E7D1206805610020CCE70000FA
:102930000200010070B516460D4604461EE0204612
:10294000FFF70EFF08B1012070BD681C16D0FEF71E
:10295000F3FA801BA84200D885B920684069C043BB
:1029600040070BD5002044F8300F20216173A0737D
:10297000216941F0200121612073E4E7206840696A
:10298000C0434007DBD4002070BD00002DE9F047B4
:10299000984617460D460446C1F30746DDF82090D9
:1029A0002AE000BFB8F1FF3F26D0FEF7C5FAA0EB42
:1029B0000901414502D8B8F1000F1DD12068012E50
:1029C00016D0806925EA00000004000C12D0002017
:1029D000B84211D1002044F8300F20216173A07358
:1029E000216941F02001216120730120BDE8F087B9
:1029F0004069E7E70120EBE72068012E0AD08069F3
:102A000025EA00000004000C06D00020B842C9D01E
:102A10000020EBE74069F3E70120F7E72DE9F047F5
:102A2000984616460D4604464FF000094FF0200A1E
:102A3000C1F3074723E020684069C043400515D42F
:102A40002068016841F40071016021686FF48060C2
:102A50004861C4F8309084F83DA084F83E90216C21
:102A600041F00401216484F83C9021E0701C06D000
:102A7000FEF762FAA0EB0800B04203D816B1012FAE
:102A80001FD021E02068012F15D0806925EA0000C1
:102A90000004000C18D000BF44F8309F84F80DA04B
:102AA00084F80E90216941F02001216184F80C9096
:102AB0000120BDE8F087406925EA00000004000C11
:102AC000EAD12068406901E02068806925EA0000B9
:102AD0000004000CAFD1ECE72DE9F0410025904651
:102AE0000E460446202728E04069C043C0060CD4A7
:102AF00054F8301B6FF01000486144F810596777A4
:102B0000A577206A2062257714E0FEF715FAA0EB7E
:102B10000800B04200D886B920684069C04340062A
:102B20000BD544F8305F6773A573206940F020002F
:102B3000206125730120BDE8F08120684169C94307
:102B40004906D1D40020F6E770B516460D46044676
:102B50001EE02046FFF704FE08B1012070BD681C8E
:102B600016D0FEF7E9F9801BA84200D885B9206885
:102B70004069C04300060BD5002044F8300F2021E7
:102B80006173A073216941F0200121612073E4E7A2
:102B900020684069C0430006DBD4002070BD0000FF
:102BA0002DE9F04700242DED048B84B064269FEDC1
:102BB000389A81462546B0EE498A0DF10C08F0EEB0
:102BC000488A0227CDF80080CDE90176012347220B
:102BD000D0214846FEF78AFA60BBBDF80C00CDF85C
:102BE000008040BACDE901760FFA80FA0123412234
:102BF000D0214846FEF77AFAE0B900EE10AA9FED20
:102C0000251ABDF80C00F8EEC00A40BA00B2641CE8
:102C100080EE810A9FED201A70EE288A00EE100ADD
:102C2000F8EEC00A80EE810ADFED1C0A30EE200AC1
:102C300030EE088A052001F0F2F86D1CC82DC1DBCA
:102C40001748002C10DD00EE104AB8EEC00AC8EE9E
:102C5000800A00EE104AB8EEC00AC0ED010AC8EEC4
:102C6000000AC0ED020A05E080ED019AB3EE090A00
:102C700080ED020A90ED010A80ED000A90ED020A53
:102C800080ED030A04B0BDEC048BBDE8F0870000C2
:102C900000000000000083420000AA43B81E124258
:102CA0002000002010B5044601226B2101F0A2F89B
:102CB000002829D1642001F0B2F800221921204611
:102CC00001F098F800281FD101221A21204601F0B6
:102CD00091F8002818D108221B21204601F08AF81B
:102CE000002811D108221C21204601F083F8002879
:102CF0000AD1322001F093F82046FFF751FF182146
:102D00000248FDF7D5FB002010BD0000940500200F
:102D10001F490A8852BA13B200EE103A4A888988CD
:102D2000F8EEC00A9FED1B0A52BA12B280EE801A6A
:102D300000EE902A49BA09B2F8EEE00A80ED001AD6
:102D400080EE801A00EE901A1149103980ED011AB8
:102D5000B8EEE01AC1EE000A91ED000A9FED0F1ADD
:102D600030EEC00ADFED0C0A80ED020A60EE200AA8
:102D7000C0ED030A90ED050A00EE810ADFED080AB6
:102D800080ED050A20EE200A80ED040A704700005D
:102D9000300000200000834235FA8E3C6F12833AE7
:102DA000E12E65421CB506220449CDE9001201233B
:102DB0004322D021FEF79CFA1CBD00003000002009
:102DC0001FB56423022203A98DE80E0001234122CE
:102DD000D021FEF78BF900281ED1BDF80C009FED25
:102DE0000F1A40BA00B200EE100A0E48B8EEC00A40
:102DF000C0EE010A9FED0A0A9FED0B1A30EE800A21
:102E000080ED030AD0ED020A70EE600A90ED010A2F
:102E100000EE810A80ED000A1FBD00000000AA43F9
:102E2000B81E1242200000208FC2F53C0D4808B5A4
:102E3000016841F4001101600068002200F40010F4
:102E4000009005210B20FEF731FD0B20FEF720FD41
:102E5000002205211120FEF729FDBDE808401120C0
:102E6000FEF716BD3038024010B50D4B002201218F
:102E70000C4801F055F80C4C0121606001F08CF811
:102E8000074A0021243A094801F004F8044A206066
:102E900010320021064800F0FDFFA06010BD0000C8
:102EA0009C57000845090008000000200134000874
:102EB000393400082DE9F04387B014216846FDF746
:102EC000F7FA39480024016841F0100101600168F7
:102ED00001F010010591016841F080010160016875
:102EE00001F080010591016841F001010160016874
:102EF00001F001010591016841F0040101600168E0
:102F000001F004010591016841F0020101600168CE
:102F100001F002010591016841F0080101600068BB
:102F2000DFF8889000F008000590002280214846D4
:102F3000FDF7FCFF1E4F002210213846FDF7F6FF7B
:102F4000DFF87080FE14002231464046FDF7EEFFA8
:102F5000802000900125CDE901546946484603943C
:102F6000FDF7ECFE10200090CDE90154694638468B
:102F70000394FDF7E3FE0096CDE90154694640460F
:102F80000394FDF7DBFE4FF4E05000900220CDE902
:102F90000104032003900A20049069464846FDF787
:102FA000CDFE07B0BDE8F08330380240000002409B
:102FB00000080240000C02400D4810B50B490160AA
:102FC0000C49416000214FF480428160C0E9031246
:102FD00041618161C1610162FDF7B6FF002803D044
:102FE000BDE81040FDF70FBD10BD000000540040CB
:102FF000C8000020A08601000D4810B50B490160F3
:103000000C49416000214FF480428160C0E9031205
:1030100041618161C1610162FDF796FF002803D023
:10302000BDE81040FDF7EFBC10BD000000580040A7
:103030001C010020A08601000D4810B50B4901605D
:103040000C49416000214FF480428160C0E90312C5
:1030500041618161C1610162FDF776FF002803D003
:10306000BDE81040FDF7CFBC10BD0000005C004083
:1030700070010020A086010010B58AB000240794DA
:103080001C2168460894FDF713FA16484FF080415A
:1030900001605321C0E901144FF6FF71C0E9031428
:1030A00080218161FFF727F908B1FDF7ACFC079497
:1030B00007A90C480894FEF7EDFE08B1FDF7A3FC44
:1030C0006020CDE90004029400226946054804947A
:1030D000FFF7ABF808B1FDF796FC0248FFF72AF8B6
:1030E0000AB010BD8402002010B58AB000240794F5
:1030F0001C2168460894FDF7DBF917481549016063
:103100005321C0E901144FF6FF71C0E90314802177
:103110008161FFF7F0F808B1FDF775FC079407A986
:103120000D480894FEF7B6FE08B1FDF76CFC602070
:10313000CDE9000402940022694607480494FFF791
:1031400074F808B1FDF75FFC0348FEF7F3FF0AB01F
:1031500010BD000000040040CC02002010B58AB071
:10316000002407941C2168460894FDF7A1F917482C
:10317000154901605321C0E901144FF6FF71C0E900
:10318000031480218161FFF7B6F808B1FDF73BFC1D
:10319000079407A90D480894FEF77CFE08B1FDF7D7
:1031A00032FC6020CDE90004029400226946074801
:1031B0000494FFF73AF808B1FDF725FC0348FEF741
:1031C000B9FF0AB010BD0000000800401403002041
:1031D00010B58AB0002407941C2168460894FDF7B6
:1031E00067F921481F49C0E90014611EC0E9024186
:1031F00004618461FFF77FF808B1FDF704FC0794D0
:1032000007A919480894FEF745FE08B1FDF7FBFB36
:103210006020CDE90004029400226946124804941B
:10322000FFF703F808B1FDF7EEFB042269460E48EC
:10323000FEF7FBFF08B1FDF7E6FB082269460A48E6
:10324000FEF7F3FF08B1FDF7DEFB0C2269460648E6
:10325000FEF7EBFF08B1FDF7D6FB0348FEF76AFF68
:103260000AB010BD000C00405C03002010B588B00F
:103270001C216846FDF71CF9154814490024C0E9D3
:1032800000144FF6FF71C0E9024104618461FFF749
:1032900032F808B1FDF7B7FB6020CDE900040294D5
:1032A000002269460A480494FEF7BFFF08B1FDF703
:1032B000AAFB042269460648FEF7B7FF08B1FDF7EE
:1032C000A2FB0348FEF736FF08B010BD00400140E6
:1032D000A40300200C4810B50A4901604FF4E13105
:1032E0004160002181600C22C160C0E9041281614B
:1032F000C161FFF7E6F8002803D0BDE81040FDF7F4
:1033000082BB10BD00440040EC0300200C4810B507
:103310000A4901604FF4E1314160002181600C22D3
:10332000C160C0E904128161C161FFF7CAF80028D9
:1033300003D0BDE81040FDF766BB10BD004800405B
:10334000340400200C4810B50A4901604FF4E13103
:103350004160002181600C22C160C0E904128161DA
:10336000C161FFF7AEF8002803D0BDE81040FDF7BB
:103370004ABB10BD001401407C0400207047FEE7EA
:103380002DE9F0430D462DED028B85B0F0EE608AFD
:10339000DDE90E67B0EE408A984691460446242146
:1033A000FDF786F8C4F80880C4E90059A681A77320
:1033B00084ED068AC4ED078A27B12868416C41F480
:1033C0000041416414216846FDF772F80120002194
:1033D0000096CDE90101039069464046FDF7AEFC39
:1033E000002231464046FDF7A1FD49462846FEF73A
:1033F000F9FF05B0BDEC028BBDE8F083FEE70000ED
:103400002DED028BFDF71CF90120FDF7BFF940F20D
:10341000DC5000F004FD9FED068B00BFB0EE480AC3
:10342000F0EE680AFDF776F90A2000F0F8FCF5E7FF
:103430000000000000407F400D48FFF733FC0D4DB9
:1034400000244FF4FA760B490948FFF7ABFC012042
:1034500000F0E5FCD5ED050A95ED030AFDF78EF9C0
:10346000641CB442EFD300240148FFF7A9FCEAE74B
:10347000C80000209405002010B504462DED028BF5
:1034800090ED061AF1EE410A00F01AFC84ED050AEF
:10349000D4ED080ADFED1A1A30EE600AD4ED070AFF
:1034A00020EEA11A60EEE10A00F00AFCD4ED080A51
:1034B00030EE808A01F06EFAB0EEC80A10EE100A03
:1034C000104984ED048A84ED088A884204DA0122D6
:1034D00011469FED0D0A09E0B5EEC08AF1EE10FA33
:1034E00001DB012101E04FF0FF310022204600F016
:1034F00023FCBDEC028BBDE8104001F06BBA00006C
:103500006F12833A0AD7233C000000009FED061A91
:1035100060EE810A80EE201A00EE101AB8EE400A22
:1035200021EE000AFFF7A8BFDB0F494010B54FF0AE
:10353000E020006901F032FF012803D0BDE810400F
:1035400001F060BC10BD000030B593B0302168467A
:10355000FCF7AEFF14210CA8FCF7AAFF1D480025BC
:10356000016841F080510160006800F080501190C6
:103570001948016841F4804101600068022400F4A8
:103580008040119001200090000401908001CDE95D
:10359000064004200890A820CDE9090407200B90DC
:1035A0006846FEF7BFFA08B172B6FEE70CA90F2015
:1035B00081E831004FF4A0500F904FF480501090EC
:1035C00005210CA8FEF7A4F9002801D072B6FEE789
:1035D00013B030BD4038024000700040024801681E
:1035E00041F470010160704788ED00E00148FEF78A
:1035F00008BD0000840200200148FEF702BD000063
:10360000CC0200200148FEF7FCBC0000C4040020EE
:10361000F0B50268274B284D284E294F294C4FF012
:10362000804C984209D0604507D0A84205D0B042EE
:1036300003D0B84201D0A04204D122F0700E4A68F3
:1036400042EA0E0298421BD0604519D0A84217D01A
:10365000B04215D0B84213D0A04211D01A4DA842A2
:103660000ED01A4DA8420BD0194DA84208D0194DC2
:10367000A84205D0184DA84202D0184DA84203D147
:1036800022F44075CA682A434D6922F080022A4319
:103690008D68C5620D688562984201D0A04201D153
:1036A00009690163016841F0040101600121416180
:1036B0000260F0BD0000014000040040000800402E
:1036C000000C004000040140004001400044014063
:1036D0000048014000180040001C0040002000404D
:1036E00010B501F01F030121046A99408C43046264
:1036F000016A9A401143016210BD0000F0B5036AEF
:10370000026A22F00102026242688469124E24F0C9
:1037100073050C682C4323F002058B682B430D4D79
:10372000A84201D0B04205D123F00807CB683B4343
:1037300023F00403A84201D0B04205D14D6922F420
:10374000407215438A692A43426084614968416333
:103750000362F0BD0000014000040140F0B5026AC0
:10376000036A23F010030362436884690D6824F43C
:10377000E64444EA05248D6822F0200242EA05125C
:103780000F4D104EA84201D0B04206D1CF6822F0B2
:10379000800242EA071222F04002A84201D0B04261
:1037A00007D14D6923F4406343EA85038D6943EAF9
:1037B000850343608461496881630262F0BD000053
:1037C0000000014000040140F0B5026A036A23F4DE
:1037D000807303624368C46922F4007224F07305A5
:1037E0000C68124E2C438D6842EA05220E4DA84209
:1037F00001D0B04206D1CF6822F4006242EA07222B
:1038000022F48062A84201D0B04207D14D6923F46E
:10381000405343EA05138D6943EA05134360C461CD
:103820004968C1630262F0BD00000140000401402C
:1038300030B5046A026A22F4805202624268C369A7
:103840000D6823F4E64343EA05238D6824F400540D
:1038500044EA0534084DA84202D0084DA84204D1DC
:103860004D6922F4804242EA85124260C361496890
:103870000164046230BD000000000140000401400A
:1038800010B501F003F8002805D0D0E90021BDE80B
:1038900010400846104710BD10B504462DED048BAE
:1038A000B0EE418AF0EE608AB0EE409A2021FCF73B
:1038B000FFFD84ED009AC4ED018A84ED028AB6EE24
:1038C000000A84ED030A00202077BDEC048B10BDB4
:1038D000007F18B1042801D00020704701207047F4
:1038E00070B504462DED048BF0EE408AC0ED068ADB
:1038F00090ED050A38EEC09AB0EE490A00F087FA5A
:10390000D4ED030A9FED258A0125B4EEE00AF1EE1D
:1039100010FA09D20420207784ED048AC4ED058AC8
:103920006577BDEC048B70BDB5EEC09AF1EE10FA70
:1039300001DB012001E04FF0FF306077B0EE490A73
:1039400000F065FAD4ED020AF0EE488A20EE800A13
:10395000B5EEC00AF1EE10FA01DDB0EE408AB0EE2D
:10396000480A00F090F9D4ED000AF4EEC00AF1EE36
:1039700010FA01D2B0EE600AC4ED048A2577D4EDC6
:10398000010A9FED071A70EE810AF4EEC00AF1EE0B
:1039900010FAC6DB03202077C3E700000000000018
:1039A0000AD7233C00219FED050A017780ED040A28
:1039B00090ED050A80ED060A704700000000000047
:1039C00070B504462DED088BB0EE409A007FDFED18
:1039D00060AAD8B1042819D0D4ED058AD4ED069A8E
:1039E00094ED02BA94ED048A94F91D5039EEE80A78
:1039F00000F00DFA217F0320B0EE001AF6EE000A67
:103A0000012908D002293FD003294DD0B0EE6A0A1F
:103A1000BDEC088B70BD68EE081A2BEE012A81EE12
:103A2000821A68EE201A01EE891AB4EEC10AF1EE8C
:103A300010FA38D9B0EE480A94ED001A0BEE090AD4
:103A4000DFED441A71EE611AF4EEC01AF1EE10FACD
:103A500003D80220B0EE410A207701EE105A78EE2A
:103A6000001A84ED040AB8EEC11A21EE811A61EE43
:103A7000200A40EE898A00EE905AF8EEE00AC4ED82
:103A8000058A20EE800AC3E768EE081A2BEE012AA9
:103A900081EE821A68EE201A01EE891AB4EEC10A8C
:103AA000F1EE10FA29D82077B0EE48AA04260BEEE2
:103AB00049AAB5EEC0AAF1EE10FA35D900EE105AB7
:103AC00038EE0A1AB8EEC00A21EE000A20EE200AEB
:103AD00040EE098A39EEE80A00F099F9D4ED030ABC
:103AE000B4EEE00AF1EE10FA1ED3002D16DDF4EE6E
:103AF000E98AF1EE10FA17DA1EE000EE105AB8EE7D
:103B0000C00A20EE080A40EE098A00EE105AB8EE0C
:103B1000C00AC4ED058A20EE080A79E70CDAF4EE53
:103B2000E98AF1EE10FA07D8B0EE6A0A84ED040AC9
:103B3000C4ED059A26776BE700EE105A84ED04AACF
:103B4000C4ED058AB8EEC00A20EE0A0A60E700005C
:103B5000000000000AD7233C70B5044600680169E4
:103B6000E26821F44051114301612169A068E269D2
:103B700008436169114308432168CA6849F20C632C
:103B80009A430243CA6020684169A26921F44071E6
:103B90001143416131492068884202D0304988424E
:103BA00002D1FDF77FFF01E0FDF76CFFE269002322
:103BB000192164253226B2F5004F626828D0A0FB97
:103BC0000101930F9200FCF7AFFB0146B0FBF5F04B
:103BD0006FF01802504301EB800006EB0010B0FBC1
:103BE000F5F000F0F002B1FBF5F002EB0012B1FBD2
:103BF000F5F06FF01803584301EB800006EB00105E
:103C0000B0FBF5F000F00F0021681044886070BD33
:103C1000A0FB010192185B41FCF786FB0146B0FB5B
:103C2000F5F00201B1FBF5F06FF01803584301EB1A
:103C3000800006EBC000B0FBF5F000F0F80002EBEE
:103C40004002B1FBF5F0584301EB800006EBC000E9
:103C5000B0FBF5F000F00700D6E7000000100140CF
:103C600000140140FEE70907090E002804DB00F1FB
:103C7000E02080F80014704700F00F0000F1E02011
:103C800080F8141D704710B52DED028BB1EEC08A7F
:103C900018EE100A20F00040C0F1FF40C00F0AD01B
:103CA00010EE100A20F00040C0F1FF40C00F04BF2A
:103CB0000120FCF72CFCB0EE480ABDEC028B10BDD5
:103CC000B4EEC10AF1EE10FA02DDB0EE410A70471F
:103CD000B4EEE00AF1EE10FAF9D2B0EE600A7047E5
:103CE000FDF754FD4FF47A70FDF716F8FFF72CFC42
:103CF000FFF7E0F8FFF79AF8FFF75EF9FFF77CF9B6
:103D0000FFF79AF9FFF7B8F9FFF7EEF9FFF726FA90
:103D1000FFF75EFAFFF7AAFAFFF7DCFAFFF7F6FA09
:103D2000FFF710FBFFF72AFB00F086F8FFF79CF87F
:103D300000F094F8FEE7000010B504462DED028B6C
:103D4000B0EE408AB2B16168002049B104290BD0BD
:103D50000829216809680BD00864BDEC028B10BDEE
:103D6000216809684863F8E7216809688863F4E70F
:103D7000C863F2E70029A189A06801DB012200E005
:103D80000022FDF7D3F818EE101A18484FF6FF720C
:103D900081420FDB9FED160AC0EE080ABCEEE00A76
:103DA00010EE100A401E042801D2042003E0B0F5F2
:103DB000803F00D31046226841081268D062226812
:103DC000D060606838B1042809D0082820680068ED
:103DD00009D00164C1E7206800684163BDE720683D
:103DE00000688163B9E7C163B7E700000AD7233CE5
:103DF0000024744917B583B06424012305AA8DE813
:103E00001C000A46D021FDF759FB06B010BDB5EEE7
:103E1000C00AF1EE10FA01D2B1EE400A704710B5B7
:103E2000EFF3058111B16FF0050403E0002408B140
:103E300000F088FE204610BDEFF3058010B16FF052
:103E4000050070470448016811B14FF0FF3070471A
:103E500001210160002070479800002010B5EFF3A9
:103E6000058010B16FF0050010BD084801680129F8
:103E700002D04FF0FF3010BD054A002182F8141D1A
:103E80000221016000F0C6FE002010BD9800002055
:103E90000BE000E02DE9FF414FEA01034FF0000580
:103EA000EFF30581039549BB40B380271821002417
:103EB0004AB3166806B1344696691EB13146761E7D
:103EC000382E02D21679F60703D0002004B0BDE8E0
:103ED000F081566906B1B708D2F808C0BCF1000FEE
:103EE0000DD0D5685C2D18D312693AB136B18DE882
:103EF00006103A46214601F026FA03900DE0D668F6
:103F00005EB912694AB903AACDE90012BAB22146D4
:103F100001F0ECF9012800D003950398D6E70000E2
:103F20002DE9FC471C469046894607464FF000069F
:103F3000EFF3058058BB57B3082000F039FC0500AB
:103F400025D0C5E90078B9F1000F12D00122114B3C
:103F5000002094B1216801B10846A16859B1E46814
:103F60002C2C11D3CDE900312B46012101F082FB2D
:103F700008E00022EBE7E16831B900932B4601210C
:103F800001F05EFB060002D1284600F037FD304606
:103F9000BDE8FC878138000808B5EFF3058212B14F
:103FA0006FF0050008BD58B10022134600920A4682
:103FB000042101F0A7FB012805D06FF0020008BD25
:103FC0006FF0030008BD002008BD00002DE9F0419E
:103FD000134C0F460546E6682068001D00F07EFC85
:103FE000681C07D137B12168BDE8F0410D48091DB3
:103FF00000F0C4BC20683544B5424560216805D254
:10400000A06BBDE8F041091D00F0A0BC606B091D6C
:1040100000F09CFCA06A854200D2A562BDE8F08158
:10402000480000209C0A00202DE9F041054600F0E0
:10403000B1FC2D4CA068401CA06020682B4F10B133
:10404000606930B32BE02560A068012827D10026E5
:1040500006EB860007EB800000F06AFC761C382E29
:10406000F6D3234800F064FC2148143000F060FCD3
:104070001F48283000F05CFC1D483C3000F058FC24
:104080001B48503000F054FC194860631430A063A2
:1040900005E02068E96AC06A884200D82560606A45
:1040A000401C60626864E86A2169884200D9206126
:1040B00000EB800007EB8000291D00F05FFC00F0A2
:1040C00089FC606900280CD02068E96AC06A8842CF
:1040D00007D208494FF080500860BFF34F8FBFF3FD
:1040E0006F8FBDE8F081000048000020EC05002043
:1040F0004C0A002004ED00E038B500F04BFC104CF9
:104100002068C8B90F4800F013FC0E48143000F0C6
:104110000FFC0C48E060143020610A4B0020F03B9B
:10412000009003F1500210210A2000F081FE20606F
:1041300010B105A100F0D0FCBDE8384000F04ABC49
:1041400084000020A00B0020546D7251000000007C
:1041500030B4026C0B46002A0BD0C1681144C16018
:104160008468A14201D30168C16030BC1846FCF7E5
:1041700052B930BC70472DE9F041856B17460446B3
:104180000026026C82B1C7B1E068FCF744F9E1682F
:10419000206C091AE1602268914202D2A168081AD3
:1041A000E060022F16D017E02068A8B9A06801F0DF
:1041B0006DF906460020A0600EE06068FCF72BF960
:1041C000216C606808446060A168884204D320685C
:1041D000606001E005B16D1E6D1CA5633046BDE851
:1041E000F08110B5044690F8590058B101280CD060
:1041F00002280FD0502080F31188BFF34F8FBFF3F8
:104200006F8FFEE7206B00F0F9FB2046BDE8104001
:1042100000F0F4BB10BD000010484FF4705142078D
:1042200006D0C01D0D4920F00700411AC1F570519C
:104230000B4A00230144C2E900030839183A21F06F
:10424000070111604B600B600B1AC0E9001393600B
:104250004FF0004053605061704700008012002012
:10426000B4000020144E154CA6F29C474FF0805825
:10427000DFF84C9012E000BF00F08CFBF068C568DE
:10428000281D00F02BFBA068401EA0606068401E47
:10429000606000F09FFB2846FFF7A3FF60680028DE
:1042A000EAD138680128F9D9C9F80080BFF34F8FE7
:1042B000BFF36F8FF2E70000880A0020480000205B
:1042C00004ED00E070B51D46049C51B1C4F8002017
:1042D000C4E90F010121204600F0DEFD84F84C50B6
:1042E00070BD2460F4E700002DE9F05F8846DDE949
:1042F0000B941546834691009A460A9EA522206B90
:10430000FCF7CEF86FF00301206B01EB8501084448
:1043100020F00707780707D0502080F31188BFF3FB
:104320004F8FBFF36F8FFEE70025B8F1000F0FD05E
:104330005FF00000221818F8001082F8341018F806
:10434000001011B1401C1028F4D384F8435001E050
:1043500084F83450382E00D33726E662C4E913655A
:10436000201D00F0F0FA04F1180000F0ECFA2461CE
:10437000C6F138006462A061656584F85850524601
:104380005946384600F094FA2060B9F1000F01D088
:10439000C9F80040BDE8F09F2DE9F0471E46DDE971
:1043A000089417460D00804615D0002C11D0FFF759
:1043B000A3FE04F11801C4F8008081E86002201D0A
:1043C00000F0C1FA002F04D014F8280F40F00400C8
:1043D0002070BDE8F087502080F31188BFF34F8F25
:1043E000BFF36F8FFEE7000030B5114900E01146C2
:1043F0000A688242FBD34B685C18844203D1406850
:1044000018444860084643681C18944209D1084C77
:10441000183C2468A24209D052681A4442600A68D3
:1044200012680260814200D0086030BD0460F9E784
:10443000B400002070B5002441600B4D0061914232
:1044400006D8D11A8269914206D2011D286907E077
:104450009A4203D2994201D3012403E0011DE86886
:1044600000F074FA204670BD8400002010B50446A8
:1044700000F090FAA06B28B15FF0000400F0AAFAF7
:10448000204610BD0124F9E730B589B03C4D6EE0FF
:104490000498002806DADDE90601059A9047049899
:1044A000002864DB069C606910B1201D00F016FA3C
:1044B00003A800F0D7F8024604980A2857D2DFE88C
:1044C00000F00505052D334A05052D3394F8280025
:1044D00040F0010084F828000599A069059B01447B
:1044E0002046FFF7A7FF68B3216A2046884794F863
:1044F000280040073BD5002000900598A1690023C3
:1045000042181946204601F0FDF8D8B9502080F332
:104510001188BFF34F8FBFF36F8FFEE714F8280F9A
:1045200020F00100207022E094F8280040F0010003
:1045300084F828000598A06128B181181346204608
:10454000FFF778FF13E0502080F31188BFF34F8FFF
:10455000BFF36F8FFEE794F82800810703D420464D
:1045600000F04CFA03E020F0010084F8280000225B
:1045700004A9286800F0E4FD002889D109B030BD05
:10458000840000202DE9FC410F46054600F086FB23
:1045900001A800F067F80446019818B100F0EEFF9A
:1045A000BDE8FC81254EAFB130690068D0B300276B
:1045B000291B3A46306800F0A3FA00F0DFFF00281C
:1045C000EED11F494FF080500860BFF34F8FBFF30B
:1045D0006F8FE5E7A542EBD800F0D0FFF0682746E3
:1045E000C068C468201D00F079F994F828004107DC
:1045F00019D5A0692B4641193A462046FFF71AFF04
:10460000A8B100200346014600902A46204601F04A
:1046100079F860B9502080F31188BFF34F8FBFF352
:104620006F8FFEE707E020F0010084F82800216A80
:1046300020468847B4E70127BAE70000840000203D
:1046400004ED00E00648416B096829B1416BC96877
:10465000C9684968816270474FF0FF31FAE700008E
:104660004800002070B5054600F0A6FE064E044640
:10467000B068844203D200F009F8012000E0002075
:1046800028602046B46070BD84000020F8B5194D44
:1046900020E0C068C4680668201D00F01FF9216A88
:1046A0002046884794F82800400713D5A069304475
:1046B000B04206D924616060211DE86800F046F927
:1046C00008E000200346014600903246204601F0F3
:1046D00019F838B1E86801680029DAD12969C5E913
:1046E0000310F8BD502080F31188BFF34F8FBFF344
:1046F0006F8FFEE78400002008484068401C4FF0A0
:10470000500080F3118804D0BFF34F8FBFF36F8F39
:10471000FEE7BFF34F8FBFF36F8FFEE7BC000020B3
:10472000074CE068016841B1C0680021D0F8000082
:10473000FFF728FFFFF7A8FEF3E701210020F7E7C6
:10474000840000202DE9F041044600F023F994F99B
:10475000455004F1240609E0606A48B1304600F093
:10476000D5FE08B100F01CFA6D1E6DB2002DF3DC11
:104770004FF0FF3684F8456000F02CF900F00AF99C
:1047800094F9445004F1100709E0206948B1384613
:1047900000F0BCFE08B100F003FA6D1E6DB2002DF2
:1047A000F3DC84F84460BDE8F04100F013B9000088
:1047B0002DE9F0410546002700F070FA324E3068CE
:1047C00008B9FFF729FD706905424ED1C5B3083518
:1047D00068070ED005F00700C0F10800054468071F
:1047E00007D0502080F31188BFF34F8FBFF36F8F36
:1047F000FEE72DB37068854237D82348183001464C
:104800000C6801E020460C466168A94202D221688A
:104810000029F7D131688C4227D0076821680160F0
:1048200060680837411B10290FD96019420708D06A
:10483000502080F31188BFF34F8FBFF36F8FFEE7D7
:1048400013E041606560FFF7CFFD61687068401A52
:104850007060B268904200D2B0607069014300207D
:10486000C4E90001F068401CF06000F087FE7807A2
:1048700007D0502080F31188BFF34F8FBFF36F8FA5
:10488000FEE73846BDE8F0819C00002010B504002A
:1048900006D000F07FF8E46900F09CF8204610BDD7
:1048A000502080F31188BFF34F8FBFF36F8FFEE767
:1048B00010B5031F4FF080741C601B1F21F0010115
:1048C0001960191F044B0B6014390A60091F6FF03F
:1048D000020244380A6010BDF9460008D0E90132EE
:1048E00001699A60D0E901235A604A68824201D185
:1048F00082684A60002202610868401E08600868F9
:1049000070470000034B036003F15C0008608020E7
:1049100010607047C80B0020044B036003F15C007B
:1049200008604FF48070106070470000240E002073
:1049300000F108014FF0FF32C0E90112C1600161CE
:1049400000210160704700210161704730B50B689C
:104950005A1C02D000F1080202E0026904E022467B
:10496000546825689D42FAD953684B6099608A6003
:10497000516008610168491C016030BD42684A60AD
:1049800093688B6093685960916008610168491C65
:1049900001607047502080F31188BFF34F8FBFF341
:1049A0006F8F0A494868401C486001280CD10848AC
:1049B000006810F0FF0F07D0502080F31188BFF37C
:1049C0004F8FBFF36F8FFEE770470000BC000020E1
:1049D00004ED00E00849486828B1401E486001D154
:1049E00080F311887047502080F31188BFF34F8FF8
:1049F000BFF36F8FFEE70000BC00002070B50028F9
:104A00002AD0164DA0F1080460686969084207D1F0
:104A1000502080F31188BFF34F8FBFF36F8FFEE7F5
:104A200022683AB1502080F31188BFF34F8FBFF353
:104A30006F8FFEE78843606000F030F96068696856
:104A4000084468602046FFF7CFFC2869401C2861B5
:104A5000BDE8704000F092BD70BD00009C000020D9
:104A60004FF0E02000210161816105494FF47A7225
:104A70000968B1FBF2F1491E4161072101617047EC
:104A80004400002010B5FBF72BFC114910280ED371
:104A900000F1E02090F8F0030A78904207D250200D
:104AA00080F31188BFF34F8FBFF36F8FFEE7094884
:104AB0000068896800F4E060884207D9502080F3DC
:104AC0001188BFF34F8FBFF36F8FFEE710BD00005B
:104AD000BC0000200CED00E010B5084B002200BF28
:104AE00053F832401CB1521C082AF9D310BD43F8C8
:104AF000321003EBC201486010BD0000AC0500207D
:104B000070B515460E460446FFF744FF94F944106D
:104B10000020491C01D184F8440094F94510491C37
:104B200001D184F84500FFF755FFA06B28B92A464C
:104B3000314604F1240000F051F82046BDE87040F1
:104B4000FFF700BE10B5020014D00F48006B38B15B
:104B5000502080F31188BFF34F8FBFF36F8FFEE7B4
:104B600000F09CF800211046FFF730FA00F006FD37
:104B7000002807D105494FF080500860BFF34F8FE0
:104B8000BFF36F8F10BD00004800002004ED00E06F
:104B900002490A6A0260C968416070474800002003
:104BA00001490120C86170474800002010B50C463B
:104BB00050B1094909681831FFF7C8FE2046BDE821
:104BC00010400121FFF702BA502080F31188BFF393
:104BD0004F8FBFF36F8FFEE74800002070B514467B
:104BE0000D4668B10A4909681831FFF7C7FE0CB1D4
:104BF0004FF0FF3521462846BDE87040FFF7E6B983
:104C0000502080F31188BFF34F8FBFF36F8FFEE703
:104C10004800002030B587B00024039405AA04A9F9
:104C200003A80494FFF76EFEDDE903010094CDE9CB
:104C30000110002315A11748059A00F084FB164DBA
:104C40000028E8621FD000F02DFD012809D0401C8B
:104C500019D1502080F31188BFF34F8FBFF36F8FAE
:104C6000FEE7502080F31188BFF34F8FBFF36F8FA3
:104C70004FF0FF30A86201206861EC6007B0BDE82A
:104C8000304000F045B807B030BD000049444C4505
:104C90000000000065420008480000200248016B47
:104CA000491C01637047000048000020164810B5F9
:104CB000016B11B10121C16110BD0021C161016908
:104CC000124A01E0B9B1491E01EB810352F82330C9
:104CD000002BF7D001EB810302EB830202F1080401
:104CE00053685B685360A34201D15B685360DA6824
:104CF0000260016110BD502080F31188BFF34F8F17
:104D0000BFF36F8FFEE7000048000020EC05002095
:104D10001CB537480168374A914207D1502080F3CB
:104D20001188BFF34F8FBFF36F8FFEE700683149E3
:104D3000491E884207D1502080F31188BFF34F8F5E
:104D4000BFF36F8FFEE72C4908780190FF200870B1
:104D500008788DF800009DF800009DF8002000F014
:104D6000F000904207D0502080F31188BFF34F8F9E
:104D7000BFF36F8FFEE79DF80000204C00F050005D
:104D800020700720A06005E09DF8002052008DF8FB
:104D90000020401E9DF800201206F5D4A0600328D4
:104DA00007D0502080F31188BFF34F8FBFF36F8F70
:104DB000FEE74FF44070A060019808700C48203066
:104DC000016841F470010160016841F070410160C7
:104DD000FFF746FE00206060FBF74AFA08480168CA
:104DE00041F040410160FBF72FFA00201CBD00009C
:104DF00000ED00E071C20F4100E400E0BC000020C3
:104E000034EF00E010B5502080F31188BFF34F8FCE
:104E1000BFF36F8F00F0D6FA18B104494FF08050FD
:104E20000860002080F3118810BD000004ED00E050
:104E300038B5049D18B153B1CAB181B120E05020FA
:104E400080F31188BFF34F8FBFF36F8FFEE75020C1
:104E500080F31188BFF34F8FBFF36F8FFEE75020B1
:104E600080F31188BFF34F8FBFF36F8FFEE739B127
:104E7000502080F31188BFF34F8FBFF36F8FFEE791
:104E800050241C46012384F846302B460094FFF73B
:104E900019FA204638BD000070B50D46040025D033
:104EA000FFF778FDD4E90F20216802FB0011A16013
:104EB0000021A163216861600A46D4E90F01401E08
:104EC00000FB0121E16021464FF0FF3001F8440F63
:104ED000487004F110008DB1FFF72AFD04F12400A1
:104EE000FFF726FDFFF776FD012070BD502080F30F
:104EF0001188BFF34F8FBFF36F8FFEE72169002941
:104F0000F0D000F003FB0028ECD004494FF08050B3
:104F10000860BFF34F8FBFF36F8FE3E704ED00E04E
:104F20002DE9FF4782B01D468A464FF00008040075
:104F300003D0BAF1000F08D011E0502080F311889F
:104F4000BFF34F8FBFF36F8FFEE7206C38B1502057
:104F500080F31188BFF34F8FBFF36F8FFEE7022DF1
:104F60000AD1E06B012807D0502080F31188BFF3ED
:104F70004F8FBFF36F8FFEE700F010FA3F4F4FF0F7
:104F800000094FF0805648B9049838B1502080F39A
:104F90001188BFF34F8FBFF36F8FFEE7FFF7FAFC67
:104FA000A06BE16B884207D3022D05D00498D0B1E5
:104FB000B8F1000F1AD01EE02A4651462046FFF7EE
:104FC000DAF8616A19B104F1240000F09FFA20B107
:104FD0003E60BFF34F8FBFF36F8FFFF7FBFC0120E5
:104FE00006B0BDE8F087FFF7F5FC22E06846FFF762
:104FF000CFFD4FF00108FFF7EDFCFFF74FFEFFF785
:10500000C9FC94F94400401C01D184F8449094F9FF
:105010004500401C01D184F84590FFF7DBFC04A952
:10502000684600F029F930B12046FFF78BFB00F00D
:10503000A5FA0020D4E7FFF7ADFCA06BE16B884236
:1050400013D1FFF7C7FC04F110000499FFF7AEFD80
:105050002046FFF777FB00F091FA00289ED13E60D2
:10506000BFF34F8FBFF36F8F98E7FFF7B3FC204676
:10507000FFF768FB00F082FA90E7000004ED00E023
:105080002DE9F0471F4690468946040003D0B9F148
:10509000000F08D011E0502080F31188BFF34F8F2C
:1050A000BFF36F8FFEE7206C38B1502080F311887A
:1050B000BFF34F8FBFF36F8FFEE7022F0AD1E06B74
:1050C000012807D0502080F31188BFF34F8FBFF322
:1050D0006F8FFEE7FFF7D6FC5020EFF3118680F3C9
:1050E0001188BFF34F8FBFF36F8FA06BE16B8842C6
:1050F00006D3022F04D0002086F31188BDE8F08784
:1051000094F94550A06B3A4649462046FFF733F8DC
:10511000681C04D06D1C84F845500120ECE7606ADF
:105120000028FAD004F1240000F0F0F90028F4D0AF
:10513000B8F1000FF1D00121C8F80010EDE7000030
:105140002DE9F747002683B08A46040003D0BAF160
:10515000000F08D011E0502080F31188BFF34F8F6B
:10516000BFF36F8FFEE7206C38B1502080F31188B9
:10517000BFF34F8FBFF36F8FFEE700F00FF9DFF83B
:10518000F4804FF000094FF0805748B9059838B1C6
:10519000502080F31188BFF34F8FBFF36F8FFEE76E
:1051A000FFF7F8FBA56BC5B151462046FEF7D0FFCF
:1051B0006D1EA563206950B104F1100000F0A6F93E
:1051C00028B1C8F80070BFF34F8FBFF36F8FFFF7A0
:1051D00001FC012006B0BDE8F087059808B11EB1BA
:1051E00006E0FFF7F7FB27E06846FFF7D1FC012652
:1051F000FFF7F0FBFFF752FDFFF7CCFB94F94400FB
:10520000401C01D184F8449094F94500401C01D120
:1052100084F84590FFF7DEFB05A9684600F02CF8FE
:10522000002820460AD0FFF78DFA00F0A7F92046A3
:10523000FFF71CF90028B3D00020CBE7FFF716F9E1
:1052400090B104F124000599FFF7B0FC2046FFF768
:1052500079FA00F093F90028A2D1C8F80070BFF3E2
:105260004F8FBFF36F8F9BE72046FFF76BFA00F07D
:1052700085F995E704ED00E02DE9F0410C460500C5
:1052800011D0C4B1FFF786FB174BDA686E6820684F
:10529000911B471C17D02F681B6A9F4219D096425A
:1052A00017D8012410E0502080F31188BFF34F8FEE
:1052B000BFF36F8FFEE7502080F31188BFF34F8F4D
:1052C000BFF36F8FFEE70024FFF784FB2046BDE8A5
:1052D000F081884205D9401A20602846FFF758FC23
:1052E000F1E700202060DCE7480000202DE9FF5FA7
:1052F0008346DDE90E87994616468A469000FFF7F9
:1053000057FA05001CD05C20FFF752FA040014D0B5
:105310000020256384F85900CDE90240CDE90087DB
:105320004B46324651465846FEF7DEFF2046FEF712
:105330007BFE012004B0BDE8F09F2846FFF75EFB2E
:105340004FF0FF30F6E7F0B585B0DDE90B640A9D5C
:10535000A6B1DCB15C2700972663022684F8596069
:10536000002604AFCDE90246CDE90057FEF7BCFFA9
:105370002046FEF759FE049805B0F0BD502080F39A
:105380001188BFF34F8FBFF36F8FFEE7502080F37C
:105390001188BFF34F8FBFF36F8FFEE70548416958
:1053A00019B1006B18B1002070470120704702202E
:1053B00070470000480000200148C06870470000A6
:1053C000480000202DE9F0412E4C0027206B28B129
:1053D000A069401CA0613846BDE8F081E668761CF3
:1053E000E66013D1606B006838B1502080F31188FB
:1053F000BFF34F8FBFF36F8FFEE7606BA16B6163ED
:10540000A063206A401C2062FFF71CF9A06ADFF845
:105410007880864209D3606B0068A0B1606BC06879
:10542000C5686868864211D2A0622068C06A00EB35
:10543000800158F82100012800D90127E0690028DF
:10544000C9D00127C7E74FF0FF30EDE7281DFFF770
:1054500045FAA86A18B105F11800FFF73FFAE86AA3
:105460002169884200D9206100EB800108EB8100AE
:10547000291DFFF783FAE86A2168C96A8842CAD3FE
:105480000127C8E748000020EC05002070B50400A3
:105490004FF0000133D01B4D2868844207D05020C4
:1054A00080F31188BFF34F8FBFF36F8FFEE7206D3E
:1054B00038B1401E2065E36CE26A9A421FD040B1C9
:1054C0001DE0502080F31188BFF34F8FBFF36F8F23
:1054D000FEE7201DFFF702FAE06CE062C0F1380041
:1054E000A061E06A2969884200D92861064900EB79
:1054F000800001EB8000211DFFF740FA01210846E2
:1055000070BD000048000020EC05002070B5C068A8
:10551000C46854B104F118000646FFF7DFF9144DD2
:10552000286B50B13146134815E0502080F31188A4
:10553000BFF34F8FBFF36F8FFEE7201DFFF7CEF94C
:10554000E06A2969884200D928610B4900EB800094
:1055500001EB8000211DFFF711FAE06A2968C96A92
:10556000884202D90120E86170BD002070BD0000B2
:1055700048000020740A0020EC0500202DE9F047C7
:105580002C4D00242746286B38B1FFF703FA286B0F
:10559000401E2863286B40B146E0502080F31188FC
:1055A000BFF34F8FBFF36F8FFEE7A968224E012034
:1055B000D1B3A6F5916980463068E0B1F068C4685F
:1055C00004F11800FFF78AF9201DFFF787F9E06A58
:1055D0002969884200D9286100EB800109EB81002C
:1055E000211DFFF7CBF9E06A2968C96A8842E3D335
:1055F000C5F81C80E0E70CB1FFF724F8AC694CB1AA
:105600004FEA0806FFF7DEFE00B1EE61641EF9D135
:105610000020A861E86938B1084901273807086007
:10562000BFF34F8FBFF36F8FFFF7D4F93846BDE854
:10563000F087000048000020740A002004ED00E01C
:105640002DE9FC4781461E46174688462C200A9DB8
:10565000FFF7AEF804000AD0002084F82800CDE956
:10566000005433463A4641464846FEF795FE2046EA
:10567000BDE8FC877CB52C26DDE90654009644B1D4
:10568000022684F82860CDE90054FEF785FE204606
:105690007CBD502080F31188BFF34F8FBFF36F8F15
:1056A000FEE7000010B586B0FEF726FD114C20681D
:1056B000B8B100200390049005AA04A903A8FFF73D
:1056C0002BF9DDE9032102208DE8070000230AA160
:1056D0000B48059AFFF737FE606010B106B0012055
:1056E00010BD502080F31188BFF34F8FBFF36F8F31
:1056F000FEE7000084000020546D722053766300A2
:10570000214700082DE9FF411E46134602000A9D6D
:105710004FF0000016D0144C2768002F0FD0CDE9B1
:1057200000130292062917DAFFF738FE02284FF01D
:1057300000030FD0002269462068FFF7F1FB04B098
:10574000BDE8F081502080F31188BFF34F8FBFF385
:105750006F8FFEE72A46EEE7002332466946384659
:10576000FFF78EFCEBE70000840000204FF0407054
:10577000E1EE100A70470000FC570008000000002E
:105780000000000000000000000000000002000017
:105790001800000000000000000000000858000889
:1057A000000000000000000000000000F0570008AA
:1057B00000000000000000000000000000000000E9
:1057C00000040000200000000000000000000000B5
:1057D0000006101600061016000000000000000071
:1057E0000102030406070809000000000102030487
:1057F0006779726F5461736B0000000064656661C5
:10580000756C745461736B00436F6E74726F6C547B
:10581000696D657200000000385800080000002023
:10582000C8000000C401000800590008C80000209A
:1058300018540000E0010008000000000000000013
:105840000000000000000000000000000000000058
:105850000000000000000000000000000000000048
:105860000000C8410000C841000000000000000026
:105870000100000010000000000000000024F400FF
:105880000000000000000000000000000000000018
:105890000000000000000000000000000000000008
:1058A00000000000000000000000000000000000F8
:1058B00000000000000000000000000000000000E8
:1058C00000000000000000000000000000000000D8
:1058D00000000000000000000000000000000000C8
:1058E00000000000000000000000000000000000B8
:1058F0000000000000000000AAAAAAAA0000000000
:040000050800018965
:00000001FF
