:020000040800F2
:10000000F854002001030008A1560008D93E00085A
:10001000235600083B160008AB61000800000000F2
:100020000000000000000000000000004102000885
:10003000851A0008000000009D020008B159000860
:100040001B0300081B0300081B0300081B03000818
:100050001B0300081B0300081B0300081B03000808
:100060001B0300081B0300081B030008C919000834
:100070001B0300081B0300081B0300081B030008E8
:100080001B030008D51900081B0300081B03000808
:100090001B0300081B0300081B0300081B030008C8
:1000A0001B0300081B0300081B0300081B030008B8
:1000B000715A00087D5A00081B030008E93E000839
:1000C000DD3E00081B0300081B0300081B0300089B
:1000D0001B0300081B0300081B0300081B03000888
:1000E0001B0300081B0300081B0300081B03000878
:1000F0001B030008895A00081B0300081B030008A3
:100100001B0300081B0300081B0300081B03000857
:100110001B0300081B0300081B0300081B03000847
:100120001B0300081B0300081B0300081B03000837
:100130001B0300081B0300081B0300081B03000827
:100140001B0300081B0300081B0300081B03000817
:100150001B0300081B0300081B0300081B03000807
:100160001B0300081B0300081B0300081B030008F7
:100170001B0300081B0300081B030008000000000D
:100180001B0300081B03000800F002F800F049F808
:100190000AA090E8000C82448344AAF10107DA45E2
:1001A00001D100F03EF8AFF2090EBAE80F0013F0EB
:1001B000010F18BFFB1A43F0010318479C8300008E
:1001C000BC830000103A24BF78C878C1FAD852071F
:1001D00024BF30C830C144BF04680C6070470000C1
:1001E0000023002400250026103A28BF78C1FBD840
:1001F000520728BF30C148BF0B607047662908F01E
:10020000F980002070471FB508F0EFF800F0D4FC2B
:1002100004000020002108F05BF8E0601FBD10B56D
:1002200010BD00F0CDFD1146FFF7EDFF06F054F8CC
:1002300000F0EBFD03B4FFF7F2FF03BC00F02EFE6D
:100240002C4B19680868B0E8F04F80F30988BFF3B9
:100250006F8F4FF0000080F311887047000000009E
:1002600008480068006880F308884FF0000080F3B9
:10027000148862B661B6BFF34F8FBFF36F8F00DF94
:1002800000BF00BF08ED00E0DFF80C00016841F49A
:1002900070010160704700BF88ED00E0EFF3098056
:1002A000BFF36F8F134B1A681EF0100F08BF20EDBD
:1002B000108A20E9F04F106009B44FF0500080F32D
:1002C0001188BFF34F8FBFF36F8F07F03BF94FF0EB
:1002D000000080F3118809BC19680868B0E8F04F85
:1002E0001EF0100F08BFB0EC108A80F30988BFF32E
:1002F0006F8F704760000020EFF3058070470000AB
:100300000948804709480047FEE7FEE7FEE7FEE7A9
:10031000FEE7FEE7FEE7FEE7FEE7FEE704480549E5
:10032000054A064B70470000615A00088901000821
:10033000F84E0020F8540020F8500020F85000201B
:1003400053EA020C00F069802DE9F04B4FF00006F3
:10035000002B1FBFB3FA83F503FA05F424FA05F660
:100360005E4012BF1643B2FA82F502FA05F4C5F1F7
:1003700020051EBF22FA05FC44EA0C04203556EA8B
:10038000044C4FEA144418BF641C4FF000084FF0AF
:100390000009904271EB030C39D3002919BFB1FA5F
:1003A00081F701FA07F6B0FA80F700FA07F6C7F10D
:1003B00020071EBF20FA07FC46EA0C062037B6FBD2
:1003C000F4FCA7EB0507103F07F01F0BCBF120064D
:1003D0000CFA0BFB2CFA06F644BFB3460026202F7E
:1003E000A4BF5E464FF0000B5BEA060C08BF4FF05F
:1003F000010B19EB0B09ABFB027C48EB0608C01B99
:1004000006FB02CC0BFB03CC71EB0C01C1E70B46E6
:10041000024641464846BDE8F08B13B54FF0000058
:100420004FF00001AFF30080BDE81C4070470000B2
:100430000FB47CB50C0009AA009001D02044401EE6
:10044000084B7B4469460190089800F040FB054644
:100450001CB10020694600F04DFB28467CBC5DF8CD
:1004600014FB0000B90600002DE9F05F8946044640
:100470004FF0000ADFF824B1FB44C0F820A020466A
:10048000E168884700287DD0252806D0D4E90121DD
:100490009047206A401C2062F1E700255F46204615
:1004A000E16888472028064607DB312E05D2B819B7
:1004B00010F8200C08B10543F1E7A80701D525F095
:1004C0000405C4F81CA00027C4F818A02A2E09D0DF
:1004D000304605F0B0FE38B304EB8708303EC8F86C
:1004E000186019E059F8041B204604EB870291615B
:1004F000E1688847012F064618D1E069002820DA14
:1005000025F020051DE0D8F8180000EB800006EB70
:1005100040003038C8F818002046E1688847064691
:1005200005F089FE0028EED1012F0AD02E2E08D129
:100530002046E16888477F1C0646022F45F02005CB
:10054000C4DBA069002803DA404245F00105A06140
:10055000E80701D025F01005A6B1A6F14100192841
:1005600002D8203645F400654A46314620462560CB
:100570004D46FFF743FE60B1012807D0ED1D25F081
:10058000070000E007E000F1080978E705F1040939
:1005900075E730467AE7206ABDE8F09FFC7F0000EF
:1005A000032A40F2308010F0030C00F0158011F89F
:1005B000013BBCF1020F624498BF11F801CB00F877
:1005C000013B38BF11F8013BA2F1040298BF00F8CB
:1005D00001CB38BF00F8013B11F0030300F0978214
:1005E000083AC0F0088051F8043B083A51F804CBAF
:1005F000A0E80810F5E7121D5CBF51F8043B40F875
:10060000043BAFF30080D20724BF11F8013B11F87F
:1006100001CB48BF11F8012B24BF00F8013B00F8C3
:1006200001CB48BF00F8012B704702F0FF0343EAFB
:10063000032242EA024200F09EBA4FF0000200B5E7
:10064000134694469646203922BFA0E80C50A0E8F5
:100650000C50B1F12001BFF4F7AF090728BFA0E8A3
:100660000C5048BF0CC05DF804EB890028BF40F86F
:10067000042B08BF704748BF20F8022B11F0804FB1
:1006800018BF00F8012B704770477047704710B5CE
:1006900000F096FA006810BD10B5044600F090FA1C
:1006A000046010BD70472DE9FF4F0C461E464FF009
:1006B000FF378BB0D2E90001DDF860800A908A46EE
:1006C000C1F30A5505B93D46002108464FF0000028
:1006D000BAF1000F00F4400005DA00EB80004FF49F
:1006E000400101EA50004FEA9059B9F1010F00DDD5
:1006F000B9460A9850EA4A000ED044F61050A5F2C6
:10070000FF3545432F14B8F1000F1ED07542291E46
:100710001EDDC9F100021CE0B8F1010F4FF000002E
:1007200001D0302103E0F24305E02154401CB042E7
:10073000FBDB30460022002121540B99C1F80880D0
:10074000C1E900200FB0BDE8F08FBD1B6D1CDEE7D6
:100750004A4600DA694206A800F0BCFA06AB93E804
:10076000070003AB83E8070050460A9900F09DFBA1
:100770008DE80700A0F500501F3800900398002D69
:100780000ADD42F21F014A460844002303A90390F0
:10079000684600F006FE09E0A0F500504A461F3802
:1007A000002303A90390684600F010FE8DE80700BF
:1007B0000004000C03D04FF0FF30410800E0104669
:1007C000B8F1000F03D00022009215461EE0751EFE
:1007D00005D400F0F9F9303262556D1EF9D5B346F3
:1007E0000122084302D000227F1C04E02078302838
:1007F00001D100227F1E002A099784D01DE0112D0F
:1008000007DA00F0E1F9303262556D1C50EA01025E
:10081000F5D1084302D00098C8B10EE00021681E4F
:1008200005E0235C625C63542254401E491C8142F3
:10083000F7DBAB46A81B401E0990002004F80B0014
:100840000B98099AC0F80880C0E9002B7AE71126B6
:100850004FF0000857E72DE9F04F88460446D21DB7
:1008600022F0070191B0D1E90001CDE90A0105F0BC
:100870009DFC02460B98C00F01D02D2007E0206898
:10088000810701D52B2002E0202101EAC000032AC4
:10089000099001D0072A05DB03464146204600F0B7
:1008A000D9F90BE12078800601D5E06900E0062047
:1008B000B8F1650F814606D0B8F1660F18D0B8F1CF
:1008C000670F70D131E00020B9F1110F009001DB0A
:1008D000112301E009F101030AAA01A90CA8FFF7FD
:1008E000E2FEDDE90C70002609F10105834647E0D0
:1008F00001204B4600904FF000470AAA01A90CA81E
:10090000FFF7D1FEDDE90DB00C995D46002610B968
:1009100009F101000D18B9EB050003D4C0F1FF3651
:1009200009F10105A5EB09002BE0B9F1010F01DA8E
:100930004FF001090020B9F1110F0090484601DD88
:10094000112300E003460AAA01A90CA8FFF7ABFE99
:10095000DDE90C704D4600268346207800070AD456
:10096000AB4500DA5D4601A8012D04DD411911F8FF
:10097000011C302907D04F4502DA17F1040F04DAC1
:10098000012082460FE06D1EEEE7002F02DCED1B1A
:100990003E4403E0781CA84200DD7D1CB81B00F13A
:1009A000010A4FF000472078000703D4AA4501DB75
:1009B0004FF0FF3A0021B7F1004F0DF143088DF8D9
:1009C000431024D002202B23002F01DA7F422D2355
:1009D0000A21021EA0F1010000DC5FB197FBF1FCCF
:1009E00097FBF1F201FB1C7C17460CF1300C08F868
:1009F00001CDEEE7A8F1010003702188090501D5BA
:100A0000452100E06521A0F1010800F8011C0998CA
:100A10000FA9A1EB0807FF1D00B10120411901EB4F
:100A2000EA70A1693844081A401EA0612078C00607
:100A300002D42046AFF30080099828B1D4E90121FF
:100A40009047206A401C20622078C00622D52046AC
:100A5000AFF300801EE0002E04DBB34502DD01A8E9
:100A6000805D00E03020D4E901219047206A401CDD
:100A70002062761CAAF101005FEA000A0AD100F0A8
:100A80009BF8C0680168405CD4E901219047206A66
:100A9000401C2062281EA5F10105DCDC07E0D4E93A
:100AA000012118F8010B9047206A401C2062381E73
:100AB000A7F10107F3DC2046AFF30080032011B05B
:100AC00041E6000001694A1C02610878704700B5E0
:100AD0008FB0CDE901310021059105497944CDE977
:100AE000031011466846FFF7BFFC0FB000BD0000C1
:100AF000E5FFFFFF0A6802F8010B0A607047D1E9C1
:100B000000239A4202D2531C0B601070704710B53C
:100B1000203AC0F00B80B1E81850203AA0E81850F5
:100B2000B1E81850A0E81850BFF4F5AF5FEA027CB6
:100B300024BFB1E81850A0E8185044BF18C918C025
:100B4000BDE810405FEA827C24BF51F8043B40F8C6
:100B5000043B08BF7047D20728BF31F8023B48BFAB
:100B600011F8012B28BF20F8023B48BF00F8012BE9
:100B700070474FF000020429C0F0128010F0030CFF
:100B80003FF45DADCCF1040CBCF1020F18BF00F8CE
:100B9000012BA8BF20F8022BA1EB0C01FFF74FBDE2
:100BA0005FEAC17C24BF00F8012B00F8012B48BF8D
:100BB00000F8012B7047000000487047B84E002035
:100BC00000487047984E002030B5B0F10A024FEA55
:100BD000900E71F100034EEA817EB0EB0E0061EBE6
:100BE00091014FEA101E4EEA017E10EB0E0041EB20
:100BF00011114FEA102E4EEA016E10EB0E0041EB80
:100C000011214FEA104E4EEA014E10EB0E0041EB5F
:100C10001141401841F100014FEAD00040EA417013
:100C20004FEAD10110EB80054FEA810444EA907449
:100C300044EB01046D1944EB0404521BA3414FF033
:100C4000000348BF0A3200D530BD401C41F100010D
:100C500030BD00002DE9F0411F460446032601681F
:100C6000072A01F4006004DB08B116A505E016A50B
:100C700003E008B115A500E015A521F010002060E3
:100C8000A069C01EA0610FB1401EA0612046AFF355
:100C900000804FB1D4E9012138469047206A401CBA
:100CA0002062C01C206206E0206AFAE7D4E9012134
:100CB00015F8010B9047761EF8D22046AFF300805E
:100CC000BDE8F0814E414E006E616E00494E460017
:100CD000696E66002DE9F047814616468AB03548B0
:100CE00078440DC88DE80D0032487844801C03AC70
:100CF0000DC884E80D0041F69B300844372190FB75
:100D0000F1F290FBF1F5A5F1800501FB12041B3C0B
:100D100002D56442012000E00020DFF898A0804660
:100D20000027FA44AAF1BE0A0EE0E0070AD03246D4
:100D3000684607EB470101230AEB810100F046FBFF
:100D40008DE8070064107F1C002CEED1194F7F4402
:100D5000AE3F19E0E80715D007EB04100DF1180AB3
:100D600090E80E008AE80E00C068F04201D19819A0
:100D700008903246012306A903A800F027FB03AB25
:100D800083E807006D10641C002DE3D14FF00103D0
:100D900032466946B8F1000F03A802D000F001FB0B
:100DA00001E000F013FBC9E90001C9F808200AB00E
:100DB000BDE8F0872478000000487047984E002076
:100DC0007546FFF7F9FFAE4605006946534620F029
:100DD0000700854618B020B5FFF7A0FABDE820400F
:100DE0004FF000064FF000074FF000084FF0000BE7
:100DF00021F00701AC46ACE8C009ACE8C009ACE89A
:100E0000C009ACE8C0098D46704710B50446AFF381
:100E100000802046BDE81040FFF70CBA4FF0013CBF
:100E200050F8042B51F8043B9A4221D1A2EB0C0359
:100E3000934313EACC1317D150F8042B51F8043B19
:100E40009A4215D1A2EB0C03934313EACC130BD1B6
:100E500050F8042B51F8043B9A4209D1A2EB0C0341
:100E6000934313EACC13DBD04FF00000704700BF70
:100E7000D01A01BAB1FA81F101F0180122FA01F099
:100E8000CB40C1F12001DBB2C0B2C01A2CFA01F391
:100E9000D11A914311EAC311E6D1704701491820D4
:100EA000ABBEFEE72600020070475FEA400C08BFB9
:100EB00091F0000F4FEA8C234FEAC12243EA5151CF
:100EC0004FEA1C5018BF00F5F0404FEA300018BF41
:100ED00041F000415FEA6C5C00F02980BCF1FF3F0B
:100EE00008BF40F080407047130C06BF12044FF05B
:100EF000100C4FF0000C130E04BF12020CF1080C82
:100F0000130F04BF12010CF1040C930F04BF9200E5
:100F10000CF1020CD30F04BF52000CF1010C11466E
:100F20004FF00002A0F11F00A0EB0C00704711F081
:100F3000004F08BF704731F000413FF4D5AF0B0CB4
:100F400006BF09044FF0100C4FF0000C0B0E04BF4D
:100F500009020CF1080C0B0F04BF09010CF1040C81
:100F60008B0F04BF89000CF1020CCB0F04BF4900AA
:100F70000CF1010CCCF12003A0EB0C0022FA03F3DE
:100F800002FA0CF241EA030100F10100704720F07F
:100F90007F4C80EA030023F07F47ACEB070303F5A7
:100FA0007C5300F0004003F1FF032DE980494FEA34
:100FB000154B09B44FEA144325EA0B4E24EA0348C3
:100FC0000FF2042606EB132749083E785FEA320247
:100FD00003FB0667C7F5000707FB06F64FEA543721
:100FE0004FEAD64606F1020607FB066CCCF1005C20
:100FF0004FEA1C472CEA074C07FB06F40CFB06F5EE
:1010000004EB15464FEA961634BF00204FF000401F
:101010004FEAD13706FB07FC4FEA1C4C0CFB0BF7E1
:10102000D21B03FB0CF761EB07010CFB0EF7B0EBD7
:10103000074072EB17420CFB08F734BFA2EB0742E4
:10104000B2EB074261EB17414FEA0C444FEA9107BC
:1010500006FB07FC4FEA1C4C0CFB0BF7B0EBC74040
:1010600072EB573203FB0CF734BFA2EBC742B2EB73
:10107000C74261EB57310CFB0EF7B0EBC70072EBC8
:1010800057720CFB08F734BFA2EBC702B2EBC702E2
:1010900061EB5771039F4FEA816141EA921104EBC2
:1010A000CC044FEAD1374FEA826206FB07FC42EAE2
:1010B00090124FEA80604FEA1C4C0CFB0BF7D21BDE
:1010C00003FB0CF761EB07010CFB0EF7B0EB0740DD
:1010D00072EB17420CFB08F734BFA2EB0742B2EBEE
:1010E000074261EB17414FEA8C554FEA910704EB39
:1010F0009C2406FB07FC4FEA1C4C0CFB0BF7B0EBE7
:10110000C74072EB573203FB0CF734BFA2EBC74268
:10111000B2EBC74261EB57310CFB0EF7B0EBC700E7
:1011200072EB57720CFB08F734BFA2EBC702B2EBAD
:10113000C70261EB577115EB4C254FEA816141EA1B
:1011400092114FEA82624FEAD13742EA901206FBCF
:1011500007FC44F100044FEA80604FEA1C4C0CFB92
:101160000BF7D21B03FB0CF761EB07010CFB0EF72F
:10117000B0EB074072EB17420CFB08F734BFA2EB51
:101180000742B2EB074261EB174115EB1C154FEA22
:10119000813141EA92414FEA823242EA90424FEA7B
:1011A00080304FEA0C7644F1000448EA03434EEAEB
:1011B0000B484FF0000EB2EB080C71EB030724BF95
:1011C000624639464EEB0E0E4FF0000B00185241AE
:1011D00049414BEB0B0BB2EB080C71EB03077BF1B6
:1011E000000B24BF624639464EEB0E0E4FF0000B4B
:1011F0000018524149414BEB0B0BB2EB080C71EB61
:1012000003077BF1000B24BF624639464EEB0E0EFE
:1012100051EA020718BF46F0010616EB0E7655F1AB
:10122000000254F1000103D5BDE88901BDE8008842
:10123000BDE88901BDE80048B619524141EB010102
:10124000A3F10103704780807F7E7D7C7B7A797873
:10125000777676757473727171706F6E6E6D6C6C7B
:101260006B6A6A696868676666656464636362611D
:101270006160605F5F5E5E5D5D5C5C5B5B5A5A599E
:10128000595858575756565555555454535352520A
:101290005251515050504F4F4F4E4E4D4D4D4C4C62
:1012A0004C4B4B4B4A4A4A494949484848474747AB
:1012B00047464646454545444444444343434342E8
:1012C000424242414141002B9C4630D477002BD012
:1012D0001CB54FEA370703B44FF010004FF0100170
:1012E000BAF1000F06D0BCF1000FDCBF40F00800DF
:1012F00040F008014FF000000FBCBDE810400BF1BA
:10130000010BBBF1010F08BF5FEA170722BF12F103
:10131000010211F101014FF0004143F1000300F01F
:10132000004043EA00007047F9D35708D0E746EA87
:10133000064613F1400F4FEA16461FDD13F1200F4A
:10134000DFBF16430A46002120335B42BED0C3F103
:10135000200746EA064602FA07F74FEA164646EA2B
:101360000706C3F1200722FA03F201FA07F721FA70
:1013700003F14FF0000342EA0702A7E746EA02063C
:1013800046EA06464FEA164646EA0106BCBF46EA6A
:101390000646360C4FF000034FF000024FF00001FC
:1013A00094E72DE9804C9A46934670B491E8380052
:1013B00007C831EA400C48BF34EA430C03D5FFF7B5
:1013C000E6FDFFF780FFF0BCBDE8008C2DE9804C06
:1013D0009A46934670B491E8380007C810F0804FE1
:1013E00008BF13F0804F03D100F005F8FFF76BFF43
:1013F000F0BCBDE8008C20F07F4780EA030023F0BA
:101400007F4C07EB0C03A3F57C5300F00040A3F1E5
:10141000FE0392F0000F00F0B38095F0000F00F093
:1014200077802DE901494FEA11404FEA144621EA3D
:10143000004800FB06FC24EA064708FB06F607FB0B
:1014400008F800FB07F718EB06484CEB164C4FEA80
:10145000124B18EB07484FEA15464CEB174022EAAF
:101460000B4E0BFB06FC25EA06470EFB06F607FBB8
:101470000EFE0BFB07F71EEB064E4CEB164C4FF027
:1014800000061EEB074E4CEB174B18EB0B0840F118
:10149000000018EB0E0B58EB000840F100008F1A0B
:1014A0004FF000013CBFC943661B14BFB5EB040CF1
:1014B00000213CBFC943F61B4FEA17444EEA8E0E8B
:1014C00027EA04454FEA1C4704FB07622CEA074C55
:1014D00005FB07F70CFB05F604FB0CFC16EB0746B7
:1014E00042EB174216EB0C4642EB1C421BEB060686
:1014F00058EB0202414146EA9E0601D5BDE801894A
:10150000B619524141EB0101A3F10103BDE8018984
:101510004FEA14454FEA114724EA054621EA074CF1
:1015200005FB07F406FB07F70CFB06F105FB0CFCBB
:1015300011EB074144EB17444FEA124711EB0C4102
:1015400044EB1C4422EA074C05FB07F206FB07F7B5
:101550000CFB06F605FB0CFC16EB074642EB1742AC
:1015600016EB0C4642EB1C456A1854F1000148BFCB
:101570007047B619524141EB0101A3F101037047D5
:1015800095F0000F37D04FEA11424FEA144721EA95
:10159000024624EA074C02FB07F106FB07F70CFBA7
:1015A00006F402FB0CFC14EB074441EB17414FEA35
:1015B000154714EB0C4441EB1C4125EA074C02FB98
:1015C00007F506FB07F70CFB06F602FB0CFC16EB17
:1015D000074645EB174516EB0C4645EB1C42121926
:1015E00051F1000148BF7047B619524141EB01016A
:1015F000A3F1010370474FEA14454FEA114724EA6B
:10160000054621EA074C05FB07F106FB07F70CFB33
:1016100006F24FF0000605FB0CFC12EB074241EB13
:10162000174112EB0C4251EB1C4148BF7047921816
:1016300041EB0101A3F101037047FEE710B500245F
:101640002DED028B82B080209FED228ADFED228A71
:10165000CDE90004F0EE480AB0EE680A1F4B2246BE
:101660001F49204803F0DEFF1020CDE90004F0EE12
:10167000480AB0EE680A1C4B00221C491C4803F0C3
:10168000D1FFB0EE481ADFED1B0AB0EE680A1A4827
:1016900004F044FB1848B0EE041ADFED180A9FED81
:1016A000180A203004F03AFB13489FED160A203048
:1016B00080ED030A14489FED150A047080ED010ABD
:1016C00080ED020A80ED030A80ED040A02B0BDEC51
:1016D000028B10BDABAA2645ABAAA645000002406E
:1016E0009C0200206405002000080240E402002063
:1016F00088050020555585432405002058CAB23D71
:10170000F90FC93F6F12033A1400002000000000D7
:10171000014804F01FBB000024050020014804F02C
:1017200019BB000044050020DFED0D0A9FED0D1AE6
:1017300010B560EE200A0C482DED028B80EE810A78
:10174000D0ED050A203030EE808A04F06DFBB0EE5B
:10175000480ABDEC028B0448BDE8104004F002BB0F
:10176000000048458784854324050020DFED0A0AF0
:101770000A4810B520EE200AD0ED050A30EE800AA6
:1017800004F0F0FA06480178002903D09FED050A1D
:1017900080ED020A10BD000035FA8E3C44050020A1
:1017A000140000200000000008B1012100E0002129
:1017B00006489FED070A0029017080ED020A03D058
:1017C00090ED040A80ED010A70470000140000202B
:1017D0000000000010B52DED048BDFED669A9FED43
:1017E000668A6648F0EE488A04F0B4FA30B9B0EE82
:1017F000690A624804F026FBF0EE408A9FED600A19
:1018000028EE800ADFED5F0A5C48B0EE489AC0EE31
:10181000208A203004F09EFA38B95848B0EE690AA0
:10182000203004F00FFBB0EE409A5448203004F012
:1018300091FA20B3002154480278AAB309B34F4A61
:10184000203292ED050A80ED010A00BFD0ED040AB6
:101850004E4B30EE601AB0EEC10A10EE102A9A42DA
:1018600003DAB0EE481A80ED028AD0ED020A41EEAA
:10187000290AC0ED020A39B19FED458A06E001212F
:10188000D9E790ED010AE1E79FED428ADFED421AC8
:1018900088EE210AF1EE401AF4EEE10AF1EE10FAB8
:1018A00003D2F0EE610A07E021E0F4EEC00AF1EEA7
:1018B00010FA01DDF0EE400AB1EE040AC0ED020AB2
:1018C00021EE000AB6EE001A00EE810AF1EE480A97
:1018D000B4EEE00AF1EE10FA02D2B0EE608A06E051
:1018E000B4EEC80AF1EE10FA01DCB0EE408A9FEDCA
:1018F0002B1A79EE080AB0EE680A9FED298A00EEED
:10190000C10A40EE818ADFED270AB4EEE00AF1EE6B
:1019100010FA02D2B0EE600A06E0B4EEC80AF1EEA8
:1019200010FA01DDB0EE480AF4EEE08AF1EE10FAAA
:1019300002D2B0EE608A06E0F4EEC88AF1EE10FA48
:1019400001DCB0EE688ADFED188A4FF44864214666
:10195000F0EE680A154804F01BF8F0EE680AB0EEE5
:10196000480ABDEC048B2146BDE81040104804F045
:101970000FB800006F12833A000000002405002019
:1019800087848543000048451400002035FA0E3C4A
:10199000A60A863E58CAB23D8941003F0000A642D1
:1019A0008B87DE438B87DEC30000AA4264050020DC
:1019B0008805002003480078002801D0FFF70ABFFF
:1019C0007047000000000020014800F017B9000037
:1019D000DC010020014800F011B900003C020020A9
:1019E00001681823CAB2103AB2FBF3F2054B6FF349
:1019F0000901032A9B5CC36500D9091D816508465E
:101A0000704700005884000810B5014600208B691B
:101A10008A6A4FF0C07453B1B3F5005F15D072B14C
:101A2000012A0CD0022A0AD0032A09D104E01AB1F3
:101A3000012A06D0022A03D1C96AC90100D50120B2
:101A400010BDC96AA142FAD010BD002AF7D0012A00
:101A5000F2D0022AF3D0032AF3D010BD30B50468C7
:101A6000256825F480252560046863608368402B21
:101A7000036803D099600068C26030BD9A60006856
:101A8000C16030BD704772B6FEE700001FB5684602
:101A900000F03CF89DF80F0000281ED09DF80D00C6
:101AA00000281AD09DF80E00002816D1DDED020A9C
:101AB000F5EEC00AF1EE10FA02DBB0EE600A01E0CA
:101AC000B1EE600A10EE100A0449884205DBBBEE55
:101AD0000E0A20EE800AFFF749FE1FBD9A99993E33
:101AE000074810B500680749884201D003F07CFD23
:101AF00005F096FA04488068BDE8104005F0A4BAE5
:101B00009404002000140140440000202DE9FF410E
:101B100000250646009501950295039505F080FA8B
:101B2000114C606805F090FA022718B18DF80F503B
:101B3000277013E0684604F06EFD38B1684604F083
:101B400081FB01208DF80F00207002E08DF80F500E
:101B50002770A06805F078FA05F062FA9DE80F009A
:101B600086E80F00BDE8FF814400002090F83510A2
:101B7000022903D08021416501207047052180F8AA
:101B800035100068016821F00101016000207047F4
:101B900070B504002BD094F83500022826D02068B8
:101BA000016821F0010101602068002505602068BE
:101BB0004560206885602068C560206805612168EF
:101BC000212048612046FFF70BFFE563256465642B
:101BD000A564E564256594F85C203F21914081600F
:101BE000656584F8355084F83450002070BD0120BC
:101BF00070BD406D704790F8350070472DE9F8438F
:101C000004464FF00009CDF8009063484FF4165198
:101C1000A56D0068B0FBF1F72E6894F85C10082001
:101C200000FA01F131420FD021680A6852070BD542
:101C30000A6822F004020A6094F85C108840A860E8
:101C4000606D40F00100606594F85C104FF0010891
:101C500008FA01F0304208D021684969090604D524
:101C6000A860606D40F00200606594F85C1004208C
:101C70008840304208D021680968890704D5A860E7
:101C8000606D40F00400606594F85C10102088409E
:101C9000304218D021680968090714D5A860206867
:101CA0000168490304D50068000308D5A16C07E06A
:101CB0000168C90503D4016821F008010160216CA5
:101CC00009B12046884794F85C10202088403042B3
:101CD00031D021680968C9062DD5A86094F835006F
:101CE00005282068016806D0490347D5006800032D
:101CF0001DD4616C1CE021F016010160206841696F
:101D000021F080014161206C08B9A06C20B12068ED
:101D1000016821F00801016094F85C103F208840C0
:101D2000A86084F8358084F83490216D1FE0E16B61
:101D300009B120468847606D00282BD0606DC00730
:101D400014D0052084F835002068016821F00101D5
:101D500001600098401C0090B84203D820680068D9
:101D6000C007F6D184F8358084F83490E16C0029FE
:101D700010D001B02046BDE8F04308470168C9050E
:101D8000D5D4016821F01001016084F8358084F811
:101D90003490CCE7BDE8F8835C0000202DE9F041E9
:101DA000044600F061FA06465CB1022084F8350072
:101DB000002584F834502068016821F00101016099
:101DC0000DE00120BDE8F08100F04EFA801B0528EF
:101DD00005D920206065032084F83500F2E72068EB
:101DE0000068C007F0D12268116820480140D4E99A
:101DF00001031843D4E90336334318436369184396
:101E0000A3691843E3691843236A18430843616AC6
:101E1000042903D1D4E90B13194308431060206847
:101E20004069666A20F0070130460E430127042806
:101E30000CD1A06A0643E06A40B12046FFF7E4FDFA
:101E400020B14020606584F83570BAE720684661AB
:101E50002046FFF7C5FD94F85C203F21914081604A
:101E6000656584F835700020ACE700003F8010F015
:101E70002DE9F0410446866D90F8340000250128D4
:101E80000DD0012084F8340094F835700020012F23
:101E900007D084F8340002252846BDE8F0810220EE
:101EA000FBE7022784F8357060652046FFF7D6FD12
:101EB00094F85C103F208840B0602068016841F0D1
:101EC00016010160206C20B12068016841F0080112
:101ED00001602068016841F001010160DCE7000059
:101EE00070B5044600F0C0F90546601C02D00448F5
:101EF0000078044400F0B8F9401BA042FAD370BD4A
:101F0000500000202DE9F04F0022DFF838B1012603
:101F10004FF00F0906FA02F401EA0403A3427DD14F
:101F200022F003075F44D7F8088895074FEA157C2D
:101F300009FA0CFA0AEA0805DFF80C81404502D1DB
:101F40004FF0000832E0DFF80481404502D14FF045
:101F500001082BE0DFF8F880404502D14FF002087D
:101F600024E0DFF8F080404502D14FF003081DE087
:101F7000DFF8E480404502D14FF0040816E0DFF8B6
:101F8000DC80404502D14FF005080FE0DFF8D0803B
:101F9000404502D14FF0060808E0DFF8C880404510
:101FA00002D14FF0070801E04FF0080808FA0CF8DA
:101FB000A84522D12C4DD5F800C02CEA030CC5F859
:101FC00000C005F1040CDCF800509D43CCF8005033
:101FD000254D0C35D5F800C02CEA030CC5F800C01F
:101FE0002D1FD5F800C02CEA030CC5F800C0D7F8A7
:101FF000085825EA0A05C7F808580568570003235A
:10200000BB409D430560D50800EB8505D5F820C091
:1020100057074FEAD76809FA08F700E00CE02CEA06
:10202000070CC5F820C0C5689D43C5604568A54339
:10203000456084689C438460521C102AFFF46AAF98
:10204000BDE8F08F00300140000002400004024073
:1020500000080240000C0240001002400014024040
:1020600000180240001C0240003C01402DE9F84FDE
:10207000DFF8BCA10022012503264FF00F090AF169
:10208000040BAAF1040E00BF0B6805FA02F423400A
:10209000A34270D10F7907F00307012F01D0022F5F
:1020A00016D187684FEA420806FA08FC27EA0C07AF
:1020B000D1F80CC00CFA08FC4CEA070CC0F808C0B8
:1020C0004768A7430C79C4F3001494403C43446030
:1020D0000C79E443A4070AD0C4684FEA420C06FA1C
:1020E0000CF7BC438F6807FA0CF72743C7600C79DD
:1020F00004F00304022C12D1D40800EB840CDCF8A9
:1021000020405707FF0E09FA07F824EA0804D1F81F
:10211000108008FA07F848EA0408CCF82080046820
:102120004FEA420C06FA0CF7BC430F7907F003079D
:1021300007FA0CF7274307604C6814F4403F70D04F
:102140003C4C276847F480472760246822F0030747
:1021500004F480440094384C07EB040CDCF8084885
:1021600097074FEA177809FA08F7BC43334FB8428C
:1021700002D1002724E054E0314FB84201D10127B9
:102180001EE0304FB84201D1022719E02E4FB8426D
:1021900001D1032714E02D4FB84201D104270FE0ED
:1021A0002B4FB84201D105270AE02A4FB84201D18E
:1021B000062705E0284FB84201D1072700E008278D
:1021C00007FA08F72743CCF80878DAF800405746B2
:1021D000D1F804C09C435FEACC2C00D51C433C6082
:1021E000DBF800405F46D1F804C09C435FEA8C2CCA
:1021F00000D51C433C60DEF800407746D1F804C0AF
:102200009C435FEA8C3C00D51C433C60084F083F70
:102210003C68D1F804C09C435FEACC3C00D51C4329
:102220003C60521C102AFFF42FAFBDE8F88F00006D
:10223000083C0140443802400030014000000240A8
:102240000004024000080240000C0240001002405E
:102250000014024000180240001C02400AB18161D3
:1022600070470904FBE700000148806870470000E0
:10227000500000207047704710B5040013D0242090
:1022800084F83D002068016821F0010101602046CA
:1022900000F0FEFC0020206484F83D0044F8300F7C
:1022A000A073207310BD012010BD2DE9F04101681D
:1022B00004464A694E6890F83E000025D743FA0567
:1022C00006D4F243D20503D46FF4807201254A612B
:1022D000B90508D4F143C90505D422686FF400712B
:1022E00045F002055161790525D4F143C90522D491
:1022F000638D94F83D10226B202808D13BB9212929
:1023000010D029290ED0282901D1212A0AD02268EB
:102310006FF48061516145F00405102806D0402813
:1023200004D008E0204602F059FB04E02068016870
:1023300041F400710160380508D4F043C00505D4AC
:1023400021686FF4006045F008054861002D07D052
:10235000206C284320642046BDE8F04101F0DABE3D
:10236000BDE8F0812DE9F047026800215368C66A94
:1023700090F83E4090F83D50102C12D0402C10D0D8
:10238000046C002C7DD05469E443A6077AD4DE4364
:10239000B60577D4036C03B19169BDE8F04702F04C
:1023A000F9BA976951694FF42A0CC9435FEAC178B9
:1023B0004FF02A4904D066452AD04E4528D010E077
:1023C000DE43B6050DD4C16A614501D1012103E0A8
:1023D000C16A494501D10821C162BDE8F04702F058
:1023E0006DB90E0716D4DE43B60513D4416CC9B2DD
:1023F0001161416B09B1C96B29B9816B002907D003
:10240000C96B002904D00068416841F40061416053
:10241000BDE8F0878E0706D4DE43B60503D4BDE8D9
:10242000F04702F0BFB8FE43526876074FEA025207
:102430001DD4002AECDB0A0608D4DA43520505D481
:10244000490705D5BDE8F04702F050B84907DFD489
:10245000D9438905DCD4212D05D0402CD8D1BDE845
:10246000F04702F071B9BDE8F04701F0FDBF002A66
:10247000CEDB4A060BD4DA43520508D4490708D507
:1024800001E00DE00EE0BDE8F04701F073BF490741
:10249000BED4D9438905BBD4BDE8F04701F0FDBEE9
:1024A000916970E7E10606D4D943890503D4BDE8F4
:1024B000F04702F0DBBA2821212D27D0292D25D085
:1024C000650655D4DD436D0552D4640752D590F8A6
:1024D0003D30448D002C9BD01269446A2270426AC0
:1024E000521C4262428D521E4285428D002A8FD17B
:1024F0002A2B8DD10268536823F480635360222213
:10250000026380F83D1000F0F5FC81E7250623D436
:10251000DD436D0520D4640720D590F83D30448D0F
:10252000002CF2D0446A24781461426A521C426240
:10253000428D521E4285428D002AE6D1292BE4D1DC
:102540000268536823F4806353602122026380F899
:102550003D1000F0D0FC5BE76107D6D4D943890574
:10256000D3D4418D0029D0D0416A097811610AE0A5
:102570006107CAD4D9438905C7D4418D0029C4D085
:102580001169426A1170416A491C4162418D491EBC
:1025900041853DE710B5044600680649884207D1E9
:1025A0002046FFF769FE2046BDE8104000F004B861
:1025B00010BD00000054004070B5040025D094F810
:1025C0003D00002520B984F83C50204600F0ACFBCB
:1025D000242084F83D002068016821F00101016099
:1025E0002068016841F4004101602068016821F41D
:1025F0000041016000F004FE4D4A6168914201D83B
:102600004C4900E04C49884201D2012070BD4B4941
:102610002368B0FBF1F15E6826F03F060E435E6072
:102620006368934206D94FF4967359434FF47A7313
:10263000B1FBF3F12368491C1E6A26F03F063143C3
:1026400019626168914210D84900401EB0FBF1F256
:10265000521CC2F30B02042A01D2042022E0B0FB78
:10266000F1F0401CC0F30B001CE0A268F2B301EBD8
:10267000C10303EB0116431EB3FBF6F35B1C43F4EB
:1026800080431B0549D092B301EBC10202EB01115B
:10269000401EB0FBF1F0401CC0F30B0040F4804042
:1026A00040F400402168CA694CF6FF739A43104316
:1026B000C861D4E9071001432068026822F0C00213
:1026C00011430160D4E9030101432068826848F2A4
:1026D000FF339A4311438160D4E90501084321681F
:1026E000CA6822F0FF021043C86001E00EE016E065
:1026F0002068016841F0010101602564202084F810
:102700003D00256384F83E50002070BD01EB41067A
:10271000431EB3FBF6F35B1CB3E70120C2E701EBFA
:102720004101401EB0FBF1F0401CC0F30B00B7E7C5
:10273000A086010080841E0000093D0040420F0079
:10274000704770477047000008B500680C49884220
:1027500015D102F02DFC002000900A4800680028E6
:102760000DD0694605F057F90098002807D00649B2
:102770004FF080500860BFF34F8FBFF36F8F08BDDD
:10278000005400400400002004ED00E07047000009
:102790002DE9FF4F83B09A46DDE911879346044641
:1027A000DDF84090FFF760FD054694F83D002028D5
:1027B00070D11923012274492046009502F030FAA5
:1027C0000028F5D194F83C00012863D0012084F85A
:1027D0003C0020680168C90703D1016841F001018C
:1027E00001602068016821F400610160222084F802
:1027F0003D00402084F83E0000262664C4F8249062
:10280000A4F82A80608D20856048E062CDE90075DB
:1028100053465A462046049901F0EAFF002879D130
:10282000208DD0B1012821D00228206824D0416910
:1028300080690090208D032866D801282BD0544948
:1028400002283B464FF00002009557D088462046AC
:1028500002F0E6F900285DD13AE02068416981691B
:102860000091016841F4007101607DE02068016819
:1028700021F480610160F0E7016821F4806101606A
:102880002068016841F40061016020684169806945
:10289000009069E075E02A463946204602F066FA63
:1028A00088BB54E02068016841F400710160206831
:1028B0000069616A0870606A401C6062218D491E6F
:1028C0002185618D491E618521680969017042E099
:1028D0002068016821F48061016020680069616AF4
:1028E0000870606A401C6062208D401E2085608DEB
:1028F000401E60853B46002241460095204602F07E
:102900008FF900B9CEE705E02A463946204602F0A5
:102910002DFA18B1012007B0BDE8F08F20680069DA
:10292000616A0870606A401C6062208D401E81B23E
:102930002185608D401E608520684269D243520720
:1029400012D4032903D1016821F480610160206859
:102950000069616A0870606A401C6062208D401ED8
:102960002085608D401E6085208D00287FF462AF39
:10297000202084F83D0084F83E6084F83C6000200C
:10298000C9E70220C7E70000020010000000FFFFB7
:10299000040001002DE9FC5F994692468B460446EF
:1029A000DDF83080FFF760FC00250646009594F8BE
:1029B0003D00202828D1664846F2A811202700684B
:1029C000B0FBF1F000EBC00101EB001000900098AB
:1029D000401E009010D020688069C0438007F6D563
:1029E00094F83C0001280FD0012084F83C002068B6
:1029F0000168C9070BD00EE044F8305F6773A57318
:102A0000206940F0200020610220BDE8FC9F0168A1
:102A100041F0010101602068016821F4006101605A
:102A2000222084F83D00402084F83E002564C4F84C
:102A300024800D986085608D20854648E062C4F84A
:102A400044B0C4F848A0C4F84C902565208D4FF0E0
:102A50002308002863D0A06B00B33F49C163A16B7A
:102A60003E48C864A06B0564A06B4564A06B856498
:102A7000A06B05652168238D1031626AA06BFFF79A
:102A8000F7F9A0B184F83D7084F83E5054F8400F37
:102A900040F0100044F80409257049E084F83D70C6
:102AA00084F83E5054F8400F40F08000F2E7CDE942
:102AB00000864B4652465946204601F099FE88B1A1
:102AC000A06BFFF753F8A06BC5632068016821F481
:102AD00080610160258565852068016821F001011C
:102AE000016025E0208D0128206813D0416841F461
:102AF00080514160206841698169009184F83C50AF
:102B0000416841F4807141602068416841F400618E
:102B100041601BE0016821F480610160EAE7CDE9D2
:102B200000864B4652465946204601F061FE08B1E8
:102B300001206AE72068416981690091016841F4D8
:102B40000071016084F83D7084F83C5000205CE71F
:102B50005C0000200000FFFFF13F0008B13F0008CB
:102B60002DE9FF4F83B09A46DDE91197934604465D
:102B7000DDF84080FFF778FB054694F83D002028FB
:102B80007FD11923012240492046009502F048F8E0
:102B9000002876D194F83C00012872D0012084F8F6
:102BA0003C0020680168C90703D1016841F00101B8
:102BB00001602068016821F400610160212084F82F
:102BC0003D00402084F83E0000262664C4F824809E
:102BD000A4F82A90608D20852C48E062CDE900752C
:102BE00053465A462046049901F080FE70B930E001
:102BF0002A463946204602F0F1F858B1206C0428E4
:102C000004D12068016841F400710160012007B01F
:102C1000BDE8F08F606A216800780861606A401C36
:102C20006062218D491E89B22185628D521E6285A6
:102C300022685369DB435B070BD469B100781061EC
:102C4000606A401C6062208D401E2085608D401EA1
:102C50006085208D0028CBD12A463946204601F0D8
:102C6000B3FF0028CAD154F83D0B016841F400714C
:102C70000160202004F81E09E67766770020C6E789
:102C8000FFE70220C3E70000020010000000FFFF82
:102C900070B5044600681D4A1D491E4D904213D16F
:102CA000086820F40010086040212846FFF72AF940
:102CB00080212846FFF726F9A06BFEF769FF606BBD
:102CC000BDE87040FEF764BF134A90420BD108681C
:102CD00020F48000086011152846FFF713F94FF41F
:102CE000006128460DE00D4A90420ED1086820F49C
:102CF0000000086051150A48FFF704F909484FF42D
:102D00008071BDE87040FFF7FDB870BD0054004011
:102D1000403802400004024000580040005C00407F
:102D200000080240000002402DE9F04186B006464E
:102D300014216846FDF781FC664DDFF894C13368C5
:102D4000644812270321644A103500244FF0040818
:102D500063456CD1036843F0020303600068CDE96A
:102D6000024100F002000590C020CDE90007CDF837
:102D7000108069461046FFF779F9286840F4001082
:102D800028602868564D00F40010059053482860CC
:102D90004705C5E901744FF48068C5E903486C61D3
:102DA000AC61EC612C6228466C62FEF7F7FF08B15B
:102DB000FEF769FEB563AE63494D48486035903013
:102DC000E5E802074020A5E81101454845F8144907
:102DD0006030AC61EC612C626C62FEF7DFFF08B121
:102DE000FEF751FE7563002205211F20AE6300F03F
:102DF0001BF91F2000F00AF900220521202000F015
:102E000013F9202000F002F9002206210B2000F027
:102E10000BF90B2000F0FAF800220621112000F037
:102E200003F9112000F0F2F806B0BDE8F0812D4E54
:102E3000B3421BD1036843F0020303600068CDE98D
:102E4000024100F0020005904FF44060CDE9000718
:102E5000CDF8108069461046FFF708F9286840F45D
:102E600080002860286800F480002FE01E4A93420A
:102E7000DAD1026842F004020260026802F0040241
:102E80000592026842F00102026000680E4600F0FE
:102E9000010005905815CDE9000702AA694682E8AD
:102EA00050011248FFF7E2F84FF48070CDE90007B7
:102EB00002AA694682E850010D48FFF7D7F8286852
:102EC00040F400002860286800F400000590ABE79B
:102ED00000540040303802400004024010600240BC
:102EE000DC01002000580040005C00400008024067
:102EF0000000024070477047024881680278114420
:102F000081607047500000200B4810B5016841F403
:102F100000710160016841F480610160016841F461
:102F200080710160032000F09FF80F2000F006F888
:102F300000F050F8002010BD003C024030B50546BE
:102F40001F4887B00024016841F480710160006867
:102F500006A900F48070009001A800F031F90498EF
:102F6000A8B100F04DF940001649174AB0FBF1F145
:102F70001648491E026040F2E732C0E90324C0E966
:102F80000114846100F08CFB040003D015E000F014
:102F900037F9E9E70D4800F0B1FB04000DD12D2011
:102FA00000F034F8102D07D2002229462D2000F021
:102FB0003BF80748056000E0012407B0204630BD1B
:102FC0004038024040420F0000200040DC04002056
:102FD000540000200C4882B0016841F48041016037
:102FE000006800F4804000900748001F016841F02D
:102FF000805101600068002200F0805000900F2195
:10300000901E02B000F010B844380240002809DBDE
:1030100000F01F02012191404009800000F1E020F2
:10302000C0F8001170470000F0B40E4B1B680C464E
:10303000C3F30223C3F10705042D00D90425191D8C
:10304000072901D2002300E0DB1E012606FA05F164
:10305000491E214099409E40761E16403143F0BCE7
:1030600003F0BCB80CED00E0064900F00702086868
:103070004FF6FF03184040EA0220034A104308605D
:10308000704700000CED00E00000FA052DE9F04764
:103090000E46050065D0DFF81481D8F80000F7B2BD
:1030A00000F00700B04207D288F80070D8F800009E
:1030B00000F00700B04254D128683D4C810712D57A
:1030C000400703D5206840F4E050206028780007CE
:1030D00003D5206840F4604020602068A96820F093
:1030E000F000084320602878C0072DD03049686878
:1030F0000839012812D0022813D0032811D00968FA
:10310000890700292DDA216821F00301014321609C
:10311000FFF7AAF8814641F2883A0EE00968890370
:10312000EFE709688901ECE7FFF79EF8A0EB0901DA
:10313000514502D90320BDE8F0872068696800F096
:103140000C00B0EB810FEFD1D8F80010404601F031
:103150000701B14207D90770006800F00700B042CC
:1031600001D00120E7E72878400705D52068E96805
:1031700020F4E050084320602878000706D5206836
:10318000296920F4604040EAC100206000F058F84E
:103190002168084AC1F30311515CC8400649086020
:1031A00006480068FFF7CAFE0020C4E7003C024062
:1031B00008380240608400085C00002054000020B1
:1031C0000F2202600C4A136803F003034360136884
:1031D00003F0F0038360136803F4E053C3601268E4
:1031E0004FF4E05303EAD20202610448006800F0A1
:1031F000070008607047000008380240003C0240A9
:103200000448054900680968044AC1F38221515CF9
:10321000C84070475C0000200838024070840008F5
:103220000448054900680968044AC1F34231515C09
:10323000C84070475C0000200838024070840008D5
:10324000154810B5006810F00C02144813D0411056
:10325000042A0FD0082A0ED10F4C241F226823689D
:1032600002F03F025B0207D52068C0F38810A0FB84
:10327000010106E0084610BD2168C1F38811A1FBD9
:1032800000010023FDF75CF82168C1F30141491CEE
:103290004900B0FBF1F010BD083802400024F400F2
:1032A0002DE9F84F04006ED02078DFF84C93C0076A
:1032B000A9F104054AD009F104000168C1F38101B4
:1032C000012908D00068C0F3810002280AD1D9F88A
:1032D0000000400206D52868800337D560680028C2
:1032E000E1D033E06068B0F5803F10D0B0F5A02F9A
:1032F000286810D020F480302860286820F48020CE
:1033000028606068A8B1FEF7AFFF06460DE02868A8
:1033100040F48030F4E740F480202860F7E700BFF5
:10332000FEF7A2FF801B642873D828688003F7D5B6
:103330000CE0FEF799FF064605E000BFFEF794FF9C
:10334000801B6428F0D828688003F7D42078DFF841
:10335000AC8280074FF0000A3ED5A748001D0168E7
:1033600011F00C0F08D00068C0F3810002280BD1C7
:10337000D9F80000400207D42868800716D5E06815
:10338000012800D112E033E1E068B8B10120C8F8AB
:103390000000FEF769FF064605E000BFFEF764FF88
:1033A000801B0228C0D828688007F7D528682169C3
:1033B00020F0F80040EAC10028600DE0C8F800A045
:1033C000FEF752FF064604E0FEF74EFF801B022880
:1033D0001FD828688007F7D42078000722D5864FA9
:1033E00087486169703771B101210160FEF73CFFC8
:1033F000064604E0FEF738FF801B022809D838682B
:103400008007F7D50EE0C0F800A0FEF72DFF0646B6
:1034100005E082E0FEF728FF801B02287DD838688F
:103420008007F7D42078400768D5DFF8CCB10027B3
:103430000BF13C0BDBF80000C0000BD4DBF80010F4
:1034400041F08051CBF80010DBF80000012700F0BC
:10345000805000906B4E3068C00510D4306840F446
:1034600080703060FEF700FF009005E0FEF7FCFE84
:103470000099401A022850D83068C005F6D55E4E33
:10348000A0686C3601280FD00528306810D020F0D5
:1034900001003060306820F004003060A068B8B1EE
:1034A000FEF7E2FE00900FE0306840F00100F4E724
:1034B00040F004003060F7E7FEF7D6FE0099411AAD
:1034C00041F28830814266D830688007F4D50EE03A
:1034D000FEF7CAFE009007E0FEF7C6FE0099411A0B
:1034E00041F28830814256D830688007F4D42FB139
:1034F000DBF8001021F08051CBF80010A069C8B3B0
:103500003D49091D0968C1F3810102294AD00228F9
:10351000504607D0C8F8600000E03CE0FEF7A4FE8B
:1035200004463BE04746C8F86000FEF79DFE0646AD
:1035300005E000BFFEF798FE801B02282BD8286804
:103540008001F7D4D4E907010843A16A2E4A49084B
:1035500002EB0141626A41EA8211084394F82C109F
:1035600040EA0161C9F8001001203866FEF77CFED0
:10357000044606E03EE000BFFEF776FE001B022890
:1035800009D828688001F7D534E000BFFEF76CFE4B
:10359000001B022802D90320BDE8F88F28688001AB
:1035A000F4D427E00128F7D0D9F80000E26900F44C
:1035B000800191421CD1226A00F03F01914217D153
:1035C00047F6C071626A0140B1EB821F10D1A26A56
:1035D0004FF0FF3300F4403103EB5202B1EB024FE6
:1035E00006D194F82C1000F07060B0EB016F01D0A0
:1035F0000120D1E70020CFE7043802400000474215
:10360000800E4742007000400000FFFF7047704787
:1036100070B590F83C20012A32D0012480F83C405B
:10362000022280F83D2003685A689D6822F07006E7
:103630000A6832435A60134B02689A4214D0B2F1BE
:10364000804F11D0104B9A420ED0104B9A420BD0A3
:103650000F4B9A4208D00F4B9A4205D00E4B9A421C
:1036600002D00E4B9A4204D1496825F080031943D9
:10367000916080F83D40002180F83C10084670BD04
:10368000022070BD0000014000040040000800401E
:10369000000C0040000401400040014000180040C0
:1036A00010B5040003D094F83D0010B107E00120EC
:1036B00010BD002084F83C00204600F01EF80220D7
:1036C00084F83D00211D206802F0E4F9012084F80F
:1036D000460084F83E0084F83F0084F8400084F8F7
:1036E000410084F8420084F8430084F8440084F8E0
:1036F000450084F83D00002010BD704790F83D1053
:10370000012901D001207047022180F83D10016895
:10371000CA6842F00102CA6000681149884214D0A8
:10372000B0F1804F11D00F4988420ED00E49884227
:103730000BD00E49884208D00D49884205D00D496A
:10374000884202D00C49884204D1816801F0070107
:10375000062903D0016841F0010101600020704793
:10376000000001400004004000080040000C004040
:1037700000040140004001400018004070472DE95E
:10378000F04104460068C66805694FF00007A907C4
:1037900013D5B10711D5F91E0161012020772068EA
:1037A00080698007204602D0FFF7E8FF04E000F0C0
:1037B000F9F8204600F0D2F92777680716D5700788
:1037C00014D521686FF0040008610220207720687A
:1037D000806910F4407F204602D0FFF7CFFF04E05D
:1037E00000F0E0F8204600F0B9F92777280715D552
:1037F000300713D521686FF0080008610420207796
:103800002068C0698007204602D0FFF7B7FF04E0B8
:1038100000F0C8F8204600F0A1F92777E80616D591
:10382000F00614D521686FF0100008610820207799
:103830002068C06910F4407F204602D0FFF79EFF49
:1038400004E000F0AFF8204600F088F92777E80799
:1038500008D0F00706D021686FF00100086120460B
:1038600000F0E2F9280608D5300606D521686FF089
:10387000800008612046FFF7C9FE680608D570067B
:1038800006D521686FF040000861204600F0D6F9A7
:10389000A8060AD5B00608D521686FF02000086197
:1038A0002046BDE8F041FFF7B2BEBDE8F081000060
:1038B00030B587B0044614216846FCF7BEFE246884
:1038C0000022304902233048B4F1804F0CD02F4DF4
:1038D000AC421DD10C6844F001040C60096801F091
:1038E00001010591402131E00C6844F001040C60B5
:1038F000096801F00101059120210091CDE9013213
:103900000121CDE903216946FEF7B0FB07B030BDC8
:103910001F4DAC420ED1086840F0080008600868EE
:10392000694600F008000590A0140090CDE901322E
:1039300018480FE0184DAC420FD10C6844F0010458
:103940000C60096801F0010105910F210091CDE99A
:1039500001326946CDE90323D6E710488442D5D128
:10396000086840F0100008600868694600F0100020
:10397000059060200090CDE901320320CDE90320BD
:103980000748C1E730380240000002400004004010
:1039900000080040000C0240000C004000400140C4
:1039A00000100240704770B5044690F83C000026B5
:1039B0000D4601280FD0012084F83C006AB1042A8A
:1039C0001DD0082A2FD00C2A3FD00126002084F8D1
:1039D0003C00304670BD022070BD206802F0D0F877
:1039E0002068816941F0080181612068816921F0C6
:1039F00004018161206881692A69114311E020680E
:103A000002F0EEF82068816941F40061816120686C
:103A1000816921F480618161206881692A6941EAB4
:103A200002218161D2E7206802F010F92068C169A3
:103A300041F00801C1612068C16921F00401C16140
:103A40002068C1692A69114311E0206802F032F947
:103A50002068C16941F40061C1612068C16921F435
:103A60008061C1612068C1692A6941EA0221C1619E
:103A7000ACE710B5040003D094F83D0010B107E0A6
:103A8000012010BD002084F83C00204600F01EF804
:103A9000022084F83D00211D206801F0FBFF012079
:103AA00084F8460084F83E0084F83F0084F8400023
:103AB00084F8410084F8420084F8430084F844000C
:103AC00084F8450084F83D00002010BD08B5016869
:103AD0001D48B1F1804F0BD01C4A914210D10168B2
:103AE00041F002010160006800F00200009008BD92
:103AF000016841F001010160006800F00100F5E794
:103B0000134A914207D1016841F004010160006845
:103B100000F00400EAE70F4A914207D1016841F042
:103B200008010160006800F00800DFE70A488142F0
:103B3000DDD10548001D016841F480310160006855
:103B400000F48030D2E7000040380240000400401A
:103B500000080040000C0040004001407047000099
:103B600010B50446022249B104290ED0082913D009
:103B700094F84100012816D0012010BD94F83E00B1
:103B80000128F9D184F83E200FE094F83F00012885
:103B9000F2D184F83F2008E094F840000128EBD1EE
:103BA00084F8402001E084F841200122206801F0DF
:103BB000D9FF16492068164A884201D0904203D1A5
:103BC000436C43F4004343642068884213D0B0F14F
:103BD000804F10D00F4988420DD00F4988420AD03B
:103BE0000E49884207D0904205D00D49884202D044
:103BF0000C49884204D1816801F00701062903D0ED
:103C0000016841F001010160002010BD0000014089
:103C1000000401400004004000080040000C004087
:103C2000004001400018004000680349884201D16B
:103C3000FFF762B97047000000200040704770B580
:103C4000040004D094F84100002510B106E00120E2
:103C500070BD84F84050204600F024F8242084F8F9
:103C600041002068C16821F40051C160204602F083
:103C7000DDF92068016921F4904101612068416902
:103C800021F02A0141612068C16841F40051C160FE
:103C90006564202084F8410084F8420065630020B8
:103CA00070BD0000F0B587B0044614216846FCF7EB
:103CB000C4FC3049DFF8B8C0276800222D4B10390A
:103CC0000224032507262C48674511D11F6847F4B5
:103CD00000371F601B6803F4003305930B6843F043
:103CE00008030B60096801F008010591602115E0E7
:103CF000DFF888C067451BD11F6847F480271F6025
:103D00001B6803F4802305930B6843F008030B60E2
:103D1000096801F0080105914FF44071CDE90014E4
:103D200002AF694687E86400FEF7A0F907B0F0BD6E
:103D300013488742FAD10F48001D036843F020035F
:103D40000360006800F020000590086840F004005F
:103D500008600868029200F004000590C020CDE9D8
:103D600000040820CDE9035069460648DCE700005E
:103D70000044004040380240000C0240004800402F
:103D800000140140000802402DE9F84F044690F865
:103D900042009A4616460D46202802D00220BDE871
:103DA000F88FB5B1AEB100206064222184F84210D2
:103DB0002063FEF759FAA6858146E685A0684FF490
:103DC00080582027404501D1206920B12E4600258A
:103DD00029E00120E3E7002625E04B4600222021D0
:103DE0002046CDF800A002F0A7F918B184F842707F
:103DF0000320D4E726B1A06840451AD038B108E0C6
:103E000020684068C0F3080025F8020B08E020692C
:103E100078B12068406800F07F0000BF06F8010B11
:103E2000E08D401EE085E08D0028D6D184F84270F8
:103E3000B5E720684068F1E72DE9F843044690F8BB
:103E40004100984616460D46202802D00220BDE8C3
:103E5000F88385B17EB100206064212084F84100A0
:103E6000FEF702FAA6848146E684A0682027B0F512
:103E7000805F02D003E00120E9E7206910B12E46FF
:103E800000250EE000260CE08021204602F054F9C7
:103E9000A8B9C6B116F8010B21684860E08C401E35
:103EA000E084E08C4B464FF00002CDF80080002803
:103EB000EAD14FF04001204602F03EF940B184F8CB
:103EC00041700320C3E735F8020BC0F30800E3E7B5
:103ED00084F841700020BAE7FEE700000148FEF7D1
:103EE000E4B90000E00000200148FEF73BBA000002
:103EF000E000002038B5806B002190F83D202B4B6E
:103F000046F2A8141B68B3FBF4F3C3EBC30303EB43
:103F1000830300933BB15B1E009303681B689B0502
:103F200005D5009BF6E7036C43F020030364436B65
:103F300003B1D963836B03B1D96303681C6824F4AC
:103F400080641C604185436B03B11965836B03B1C9
:103F5000196503681C6824F001041C6090F83D405A
:103F60002023602C0BD0282434EA02020FD080F8E2
:103F70003D3080F83E1000BFFEF70CFB38BD80F8E6
:103F80003D3080F83E100164FEF774F938BD0268D8
:103F9000136843F0010313600268136843F48063FD
:103FA0001360016380F83D40E6E700005C000020FC
:103FB00070B5846B0025616B01B1CD63A16B01B15C
:103FC000CD63FDF716FE022811D02068016821F4A8
:103FD000806101606585202084F83D0084F83E50B2
:103FE000206C40F0100020642046FEF7D3FA70BD2C
:103FF0002DE9F041846B94F83D2094F83E50E16A3D
:104000002068436823F440734360636B002003B16E
:10401000D863A36B03B1D863212333EA02074FF0BF
:1040200022060CD036EA020701D1202D07D094F8E1
:104030003E20002A21D0628D012A20D024E0216870
:104040004D6825F400654D6060852820292A02D03E
:104050002A2A07D00CE0236384F83D002046FEF7AF
:104060004AFF05E0266384F83D002046FEF742FF44
:104070002068416841F440714160BDE8F0812268E8
:10408000136823F4806313602268536823F4407339
:10409000536011F5803F06D0082904D0B1F12A4FB2
:1040A00001D0202904D12268136843F400731360FF
:1040B0002268536823F4805353602268536823F4C2
:1040C000006353606085226C1AB12046FEF762FAE5
:1040D000D3E7202284F83D2094F83E2084F83E0067
:1040E000402A09D0082902D0202900D012202063BC
:1040F0002046FEF726FBC0E720632046FEF724FBA0
:10410000BBE700684169C943090601D40021016188
:104110007047000070B5044690F83D0094F83E10DA
:10412000102901D0402906D1222804D121680A682B
:1041300022F400620A60282131EA00024FF00005F3
:104140004FF0200626D021684968090505D460286B
:1041500003D084F83D6084F83E50256320684168B0
:10416000090537D5416821F400614160606B90F822
:1041700035203C49012A11D00165606BFDF7F6FC42
:1041800038B32068016821F00101016084F83D60C6
:10419000606B1CE0256384F83D10DFE7A06B0165D0
:1041A000A06BFDF7E3FCA0B120684169C943490653
:1041B00005D40069616A0870606A401C606220680A
:1041C000016821F00101016084F83D60A06B016D80
:1041D000884710E094F83D10602910D04169C94328
:1041E000490605D40069616A0870606A401C606213
:1041F0002046FEF7CFF9206CC1071CD115E084F8EA
:104200003D6025644169C943490605D40069616A76
:104210000870606A401C60622068016821F001013A
:1042200001602046FEF726F8E5E7810703D4410741
:1042300001D4000704D52068416821F4E0614160A1
:1042400094F83D00216C49070BD5282809D1064870
:10425000E062256384F83D6084F83E502046FEF716
:104260006FFA70BDF53E00080000FFFF01684A6963
:10427000D24352050FD46FF480624A61002140F8A6
:10428000301F202242738173026942F004020261EE
:104290000173012070470020704710B5C26A438D3A
:1042A0000168042B06D0438D032B08D0438D022BCD
:1042B0001DD012E04A6822F480624A600CE04B682C
:1042C00023F480634B60042A06D0022A04D00168DC
:1042D0000A6822F480620A6001680969426A117002
:1042E000416A491C4162418D491E418510BD012A28
:1042F00034D0102A32D0042A34D0022A32D00B68AB
:1043000043F400730B6001680969436A1970416ADC
:10431000491C4162438D5B1E438503681B690B701A
:10432000416A491C4162418D491E418501684B68C3
:1043300023F440734B60202180F83D1090F83E300C
:104340000021402B80F83E1010D0082A02D0202AED
:1043500000D012210163FEF7F4F910BD0B6823F4BD
:104360008063CFE70B6843F48063CBE70163FEF71C
:10437000EBF910BD38B590F83D10222910D1C36A71
:10438000418D03290DD901680969426A1170416A9A
:10439000491C4162418D491E4185418D032906D04A
:1043A00038BDC26A022A02D0012906D029B10068AC
:1043B000416821F48061416038BD2A4A46F2A81460
:1043C00000211268B2FBF4F202EB82020092026852
:1043D0002024009D6D1E009526D01568AD05F8D4EB
:1043E000156825F4806515600268556825F4E06558
:1043F000556002681269456A2A70426A521C42621C
:10440000428D521E428580F83D4090F83E2080F853
:104410003E10402A21D0082B02D0202B00D01221A0
:104420000163FEF78EF938BD036C43F0200303648B
:10443000536823F4E063536002681269436A1A7098
:10444000426A521C4262428D521E428580F83D40B3
:1044500080F83E10FEF79EF838BD0163FEF774F950
:1044600038BD00005C00002010B5C26A90F83D1015
:1044700021290BD1418D51B1416A0268097811613E
:10448000416A491C4162418D491E418510BD20236E
:104490000021082A13D0202A11D012F5803F0ED017
:1044A0000268546824F4E06454601122026380F8C6
:1044B0003E1080F83D3000BFFEF744F910BD0268A1
:1044C000546824F4E06454600268146844F400748E
:1044D0001460016380F83D3090F83E2080F83E1073
:1044E000402AE9D1FEF752F910BD000010B590F84E
:1044F0003D1090F83E30C26A048DB4B1212903D03A
:10450000402B11D122290FD1418DE1B390F83E10FB
:10451000402942D0416A026809781161416A491C08
:104520004162418D491E418510BD2129E8D12023DA
:104530000021082A13D0202A11D012F5803F0ED076
:104540000268546824F4E06454601122026380F825
:104550003E1080F83D3000BFFEF7F4F810BD026851
:10456000546824F4E06454600268146844F40074ED
:104570001460016380F83D3090F83E2080F83E10D2
:10458000402AE9D100E002E0FEF700F910BD006822
:10459000416821F48061416010BDBDE8104000F029
:1045A000D3B8000078B590F83E50C26A036B90F81B
:1045B0003D6000240168222E7AD1066D0EB9402D8F
:1045C00076D0056D1DB90569B5F5404F09D0458D0B
:1045D00005B3468D384D012E0ED0438D022B3AD0B7
:1045E0005DE04A698A6900920A6842F480720A6052
:1045F000016D491C016578BDAA4213D10A6822F4F5
:1046000080620A6001684A68120503D50A6822F4CC
:10461000806216E04A698A6900920A6842F4007270
:104620000A6039E0082A10D0202A0ED0122B0AD0B6
:10463000042A03D0022A01D0102AE7D10A6842F4E2
:1046400080620A6024E0012AE0D00A6822F48062D5
:104650000A600168DEE7042A21D0022A1FD0102A4E
:104660001DD00B6823F480630B6001680B6843F472
:1046700000630B6001684B681B0509D5AA4212D084
:10468000012A10D0082A0ED0102A0CD0202A0AD0D5
:1046900001684A6989690091046578BD08E00B6882
:1046A00043F48063E5E74A6842F480524A60EFE7EA
:1046B000486988690090F0E70000FFFF90F83E101D
:1046C000402910D00169B1F5804F19D0016DA9B30F
:1046D000016D012910D1416C5FF0F10201F44071CC
:1046E00042EAD11106E0016D0029416C05D0C9B242
:1046F00041F0010100680161704701F0FE01F9E736
:1047000090F83D102129416C09D0C9B241F0010156
:1047100002681161416B29B1C96B49B902E001F02E
:10472000FE01F5E7816B0029E6D0C96B0029E3D0D3
:104730000068416841F4006141607047FFE7416CE7
:10474000F02201F44071CBE710B590F83D10026DF6
:104750004AB1026D012A14D0026D022A16D0BDE8BA
:104760001040FFF7CEBCC16C0129816C02D0C1F3AF
:10477000072108E00268C9B21161016D891C016559
:1047800010BD816CC9B20268116123E022291CD0DE
:10479000428D0AB1212920D0428D002AF0D1212951
:1047A000EED101684A6822F4E0624A6001680A6852
:1047B00042F400720A6000210163202280F83D204B
:1047C00080F83E10FDF7E2FF10BD01680A6842F470
:1047D00080720A60016D491CD1E7416A026809785C
:1047E0001161416A491C4162418D491E418510BDDC
:1047F0002DE9F84F0446006889460B9D01689846EC
:10480000174641F4806101602068016841F48071BD
:10481000016000954FF0011B0022594620460A9B7B
:1048200000F0FEF94FF4007A40B120680068C0053E
:1048300001D5C4F840A00320BDE8F88F216809F035
:10484000FE0008612B46284920460A9A00F030FAFB
:10485000F0BB20684169806900902A4620460A9989
:1048600000F0BCFA40B1206C04283AD120680168FD
:1048700041F40071016034E0FEB2B8F1010F09D0DB
:104880002168380A08612A4620460A9900F0A6FAEB
:104890000028E8D1206806612A4620460A9900F0DF
:1048A0009DFA0028DFD12068016841F48071016021
:1048B00000950022594620460A9B00F0B1F90028D5
:1048C000B3D1216809F0FF0040F00100086100E069
:1048D00007E02B46044920460A9A00F0E9F900282F
:1048E000AAD00120A8E70000020001002DE9F8434A
:1048F000044600680D46DDE90897016898461646AB
:1049000041F4807101604B4600224FF001112046B6
:10491000009700F085F948B120680068C00502D50D
:104920004FF4007020640320BDE8F883216805F08F
:10493000FE0008613B464A461549204600F0B8F99A
:1049400088B920684169806900903A464946204606
:1049500000F044FA48B1206C042804D120680168B2
:1049600041F4007101600120DEE7F5B2B8F1010FFA
:1049700009D02168300A08613A464946204600F0CD
:104980002DFA0028E7D1206805610020CCE700005F
:104990000200010038B50C4690F83D200021282582
:1049A000954302680B4605D051699169009180F8E2
:1049B0003C3038BD556825F480655560E2435407A6
:1049C00000D50121120601D5828900E0028B80F812
:1049D0003C3092B2FDF74FFC38BD00002DE9F041AC
:1049E00090F83D300446C26A002120261E4F006820
:1049F0006FF48065082A01D0202A01D1282B04D029
:104A0000212B17D04561BDE8F081E762426822F4AE
:104A1000E0624260206845612068026822F480629A
:104A20000260216384F83D6084F83E102046FDF763
:104A300087FEE8E7E7622122226384F83D6084F87C
:104A40003E10416821F4E0614160206845612068C2
:104A5000016821F4806101602046FFF752FB204687
:104A6000FEF749FACFE700000000FFFFF8B590F825
:104A70003D6004460068416821F4E06141602068BF
:104A8000002541690091016841F001010160206841
:104A9000016821F48061016020684168090520D522
:104AA000474F222E48D02A2E46D0616B09684968AC
:104AB0006185618D19B1216C41F004012164416867
:104AC00021F400614160606BFDF795F8012808D082
:104AD000606B0765606BFDF749F810B1606B016DA5
:104AE0008847608D08B320684169C943490708D4E5
:104AF0000069616A0870606A401C6062608D401ED7
:104B0000608520684169C943490608D40069616A23
:104B10000870606A401C6062608D401E6085608D18
:104B200018B1206C40F004002064206C00B32046D3
:104B3000BDE8F840FFF7EEBAA16B096849686185E6
:104B4000618D19B1216C41F004012164416821F4A7
:104B500000614160A06BFDF74EF80128C1D0A06B49
:104B60000765A06BFDF702F80028BAD0A06BB6E786
:104B70002A2E06D12563282084F83D002046FEF722
:104B8000B9F994F83D10202028290DD0216B222955
:104B900001D0222E07D1256384F83D0084F83E50D1
:104BA0002046FEF7A7F9F8BD0649E162256384F8BF
:104BB0003D0084F83E502046FDF7C2FDF8BD0000E0
:104BC000F53E00080000FFFF70B516460D4604468E
:104BD0001EE02046FFF74AFB08B1012070BD681CAB
:104BE00016D0FDF741FB801BA84200D885B920688C
:104BF0004069C04340070BD5002044F8300F202106
:104C00006173A073216941F0200121612073E4E701
:104C100020684069C0434007DBD4002070BD00001D
:104C20002DE9F047984617460D460446C1F307465E
:104C3000DDF820902AE000BFB8F1FF3F26D0FDF755
:104C400013FBA0EB0901414502D8B8F1000F1DD1BB
:104C50002068012E16D0806925EA00000004000CAF
:104C600012D00020B84211D1002044F8300F20218A
:104C70006173A073216941F020012161207301203B
:104C8000BDE8F0874069E7E70120EBE72068012EE7
:104C90000AD0806925EA00000004000C06D000203C
:104CA000B842C9D00020EBE74069F3E70120F7E7FD
:104CB0002DE9F047984616460D4604464FF0000988
:104CC0004FF0200AC1F3074723E020684069C04342
:104CD000400515D42068016841F400710160216825
:104CE0006FF480604861C4F8309084F83DA084F887
:104CF0003E90216C41F00401216484F83C9021E055
:104D0000701C06D0FDF7B0FAA0EB0800B04203D843
:104D100016B1012F1FD021E02068012F15D0806926
:104D200025EA00000004000C18D000BF44F8309FB2
:104D300084F80DA084F80E90216941F020012161D2
:104D400084F80C900120BDE8F087406925EA000056
:104D50000004000CEAD12068406901E02068806905
:104D600025EA00000004000CAFD1ECE72DE9F0418A
:104D7000002590460E460446202728E04069C0439F
:104D8000C0060CD454F8301B6FF01000486144F892
:104D900010596777A577206A2062257714E0FDF720
:104DA00063FAA0EB0800B04200D886B920684069D9
:104DB000C04340060BD544F8305F6773A573206984
:104DC00040F02000206125730120BDE8F0812068BB
:104DD0004169C9434906D1D40020F6E770B51646AB
:104DE0000D4604461EE02046FFF740FA08B10120B8
:104DF00070BD681C16D0FDF737FA801BA84200D89A
:104E000085B920684069C04300060BD5002044F8EE
:104E1000300F20216173A073216941F020012161CD
:104E20002073E4E720684069C0430006DBD400201B
:104E300070BD000070B500242DED068B82B00646D3
:104E400025469FED2A9ADFED2A9A9FED2AAAB0EE19
:104E5000498ADFED29AAF0EE488A01AA6946304660
:104E600001F0C4FAB0B9BDF90000641C00EE100AEC
:104E7000BDF90400F8EEC00A80EEA90A70EE288A97
:104E800000EE100AF8EEC00A80EE8A0A30EE2A0A16
:104E900030EE088A052001F0E8FA6D1CC82DDCDB35
:104EA0001648002C10DD00EE104AB8EEC00AC8EE1D
:104EB000800A00EE104AB8EEC00AC0ED020AC8EE41
:104EC000000AC0ED030A05E080ED029AB3EE090A7C
:104ED00080ED030A90ED020A80ED010A90ED030ACD
:104EE00080ED040A02B0BDEC068B70BD000000002E
:104EF0009A9995420000AA43B81E12422800002049
:104F0000014890ED050A7047AC05002010B5044635
:104F100001226B2101F094FA002829D1642001F0CC
:104F2000A4FA00221921204601F08AFA00281FD194
:104F300001221A21204601F083FA002818D1082204
:104F40001B21204601F07CFA002811D108221C21E7
:104F5000204601F075FA00280AD1322001F085FAC6
:104F60002046FFF767FF18210248FBF766FB002089
:104F700010BD0000AC0500200A490878002810D0B8
:104F80000948D0ED050A90ED031A41EE000A9FEDA5
:104F9000070AC0ED050A20EE800A80ED040A002011
:104FA0000870704728000020AC050020E12E654203
:104FB00000B5034800F008F802490120087000BD60
:104FC000AC050020280000201B4910B54A780B785A
:104FD00042EA032213B2CA788C7842EA04224C795E
:104FE00012B2097900EE103A44EA012109B2F8EE52
:104FF000C00A9FED120A80EE801A00EE902AF8EEA9
:10500000E00A80ED001A80EE801A00EE901A0A493C
:10501000143980ED011AB8EEE01AC1EE000A91EDE4
:10502000010A30EEC00ADFED060A80ED020A20EE2A
:10503000200A80ED030A10BD3C0000209A99954299
:1050400035FA8E3C1CB5074900200870054806213A
:105050001430CDE9000101234322D0210248FDF79D
:1050600099FC1CBD28000020E00000201FB564232F
:10507000022203A98DE80E0001234122D021FDF771
:1050800087FB00281ED1BDF80C009FED0F1A40BA17
:1050900000B200EE100A0E48B8EEC00AC0EE010AD7
:1050A0009FED0A0A9FED0B1A30EE800A80ED040A8C
:1050B000D0ED030A70EE600A90ED020A00EE810A5C
:1050C00080ED010A1FBD00000000AA43B81E124275
:1050D000280000200AD7A33C0D4808B5016841F418
:1050E000001101600068002200F400100090062109
:1050F0000B20FDF799FF0B20FDF788FF002206210A
:105100001120FDF791FFBDE808401120FDF77EBF9B
:105110003038024010B50B4B002201210A4801F043
:1051200025FA0A4C074A0021E060243A084801F0B9
:10513000D7F9044AA06010320021064801F0D0F9E6
:10514000206110BD1C840008B51900080000002073
:10515000A5560008955700082DE9F04387B01421A3
:105160006846FBF76AFA39480024016841F01001EB
:105170000160016801F010010591016841F08001B2
:105180000160016801F080010591016841F00101B1
:105190000160016801F001010591016841F004011D
:1051A0000160016801F004010591016841F002010C
:1051B0000160016801F002010591016841F00801F8
:1051C00001600068DFF8889000F008000590002278
:1051D00080214846FDF742F81E4F00221021384634
:1051E000FDF73CF8DFF87080FE140022314640469F
:1051F000FDF734F8802000900125CDE9015469467F
:1052000048460394FCF732FF10200090CDE901548A
:10521000694638460394FCF729FF0096CDE901540E
:10522000694640460394FCF721FF4FF4E05000909C
:105230000220CDE90104032003900A20049069466E
:105240004846FCF713FF07B0BDE8F0833038024052
:105250000000024000080240000C02400D4810B55A
:105260000B4901600C49416000214FF4804281608C
:10527000C0E9031241618161C1610162FDF79CF9DE
:10528000002803D0BDE81040FCF7FDBB10BD0000B6
:1052900000540040E0000020A08601000D4810B539
:1052A0000B4901600C49416000214FF4804281604C
:1052B000C0E9031241618161C1610162FDF77CF9BE
:1052C000002803D0BDE81040FCF7DDBB10BD000096
:1052D0000058004034010020A08601000D4810B5A0
:1052E0000B4901600C49416000214FF4804281600C
:1052F000C0E9031241618161C1610162FDF75CF99E
:10530000002803D0BDE81040FCF7BDBB10BD000075
:10531000005C004088010020A086010010B58AB022
:10532000002407941C2168460894FBF786F9164868
:105330004FF0804101605321C0E901144FF6FF7125
:10534000C0E9031480218161FEF793FB08B1FCF7EB
:105350009AFB079407A90C480894FEF759F908B17D
:10536000FCF791FB6020CDE900040294002269461D
:1053700005480494FEF717FB08B1FCF784FB0248CC
:10538000FEF796FA0AB010BD9C02002010B58AB054
:10539000002407941C2168460894FBF74EF917482F
:1053A000154901605321C0E901144FF6FF71C0E9AE
:1053B000031480218161FEF75CFB08B1FCF763FBFD
:1053C000079407A90D480894FEF722F908B1FCF7E5
:1053D0005AFB6020CDE90004029400226946074888
:1053E0000494FEF7E0FA08B1FCF74DFB0348FEF722
:1053F0005FFA0AB010BD000000040040E402002083
:1054000010B58AB0002407941C2168460894FBF765
:1054100014F91748154901605321C0E901144FF6EA
:10542000FF71C0E9031480218161FEF722FB08B1FE
:10543000FCF729FB079407A90D480894FEF7E8F844
:1054400008B1FCF720FB6020CDE9000402940022A3
:10545000694607480494FEF7A6FA08B1FCF713FB67
:105460000348FEF725FA0AB010BD0000000800400E
:105470002C03002010B58AB0002407941C21684634
:105480000894FBF7DAF821481F49C0E90014611EAF
:10549000C0E9024104618461FEF7EBFA08B1FCF750
:1054A000F2FA079407A919480894FEF7B1F808B171
:1054B000FCF7E9FA6020CDE9000402940022694675
:1054C00012480494FEF76FFA08B1FCF7DCFA0422E4
:1054D00069460E48FEF767FA08B1FCF7D4FA0822CD
:1054E00069460A48FEF75FFA08B1FCF7CCFA0C22CD
:1054F00069460648FEF757FA08B1FCF7C4FA0348B4
:10550000FEF7D6F90AB010BD000C0040740300206D
:1055100010B588B01C216846FBF78FF81548144970
:105520000024C0E900144FF6FF71C0E90241046194
:105530008461FEF79EFA08B1FCF7A5FA6020CDE978
:1055400000040294002269460A480494FEF72BFAEC
:1055500008B1FCF798FA042269460648FEF723FAD8
:1055600008B1FCF790FA0348FEF7A2F908B010BDA5
:1055700000400140BC0300200C4810B50A490160FE
:105580004FF4E1314160002181600C22C160C0E92B
:1055900004128161C161FEF752FB002803D0BDE80F
:1055A0001040FCF770BA10BD004400400404002015
:1055B0000C4810B50A4901604FF4E1314160002107
:1055C00081600C22C160C0E904128161C161FEF7F3
:1055D00036FB002803D0BDE81040FCF754BA10BDDC
:1055E000004800404C0400200C4810B50A490160F6
:1055F0004FF4E1314160002181600C22C160C0E9BB
:1056000004128161C161FEF71AFB002803D0BDE8D6
:105610001040FCF738BA10BD00140140940400207B
:105620007047FEE72DE9F0430D462DED028B85B066
:10563000F0EE608ADDE90E67B0EE408A984691464A
:1056400004462421FAF7F9FFC4F80880C4E9005998
:10565000A681A77384ED068AC4ED078A27B128685E
:10566000416C41F40041416414216846FAF7E5FFBA
:10567000012000210096CDE90101039069464046D2
:10568000FCF7F4FC002231464046FCF7E7FD4946B2
:105690002846FEF765FA05B0BDEC028BBDE8F08345
:1056A000FEE700002DED028BFBF7C8FF0120FCF7A1
:1056B0007BF8FCF715FA324801210170C06800F050
:1056C00091FF40F2DC5000F0D0FE00259FED2D8AC6
:1056D00000E024B9B0EE480AFCF726F80124FCF7F4
:1056E00017F878B301250A2000F0BFFE00E024B9C6
:1056F0009FED250AFCF73AF80124FCF70FF808B3F0
:1057000002250A2000F0B1FE00E024B99FED1F0A37
:10571000FCF70AF80124FBF7FBFF98B14FF49670F1
:1057200000F0A3FEFCF7B2F9032500240A2000F0E4
:105730009CFE00BFFBF7F2FF20B104250A2000F019
:1057400094FE01E00DE024B99FED110AFBF7ECFF98
:105750000124FBF7DDFF20B1052500240A2000F01D
:1057600084FE0A2000F081FE052DFAD2DFE805F064
:10577000070605040300E6E7DCE7C6E7B7E7A8E7A6
:105780000000002000007A44000034C20000FA4308
:1057900000007AC42DED028B96B003220021012077
:1057A00001F092FF404E7060C0B14048FFF7AEFB81
:1057B00000252C4602F076FBB0469FED3D8AA946B7
:1057C000DFF8F0A0CDF85000FFF73CFC0521D8F839
:1057D000040002F00BFA012808D05FE0502080F3AB
:1057E0001188BFF34F8FBFF36F8FFEE702F05AFBB4
:1057F0001499401A00EE100AB8EE400A20EE080A8A
:10580000B5EEC00AF1EE10FA01D8B0EE480AFFF783
:10581000B3FBFFF775FB00F049FD6D1CB5F5FA7F92
:1058200003D300252148FFF721FC641C642C35D3E9
:10583000DFF884B00024DBF8100002F065FD0646B6
:105840000F46DBF8080002F05FFD0B4602468DE8CC
:10585000CC001AA2402104A8FAF7EAFD411E3F2914
:1058600005D282B20A2304A91C48FEF7E5FA9AF889
:1058700000105046012903D00178022906D00DE01E
:1058800080F800900A231A4615A104E080F80090E1
:105890000A230C2215A11148FEF7CEFA012114A803
:1058A00001F034FD90E7000000000020E00000203F
:1058B0006F12833A44000020AC0500205A526174F4
:1058C000653A252B2E3366642F73205961773A256C
:1058D0002B2E32666465670D0A0000000404002068
:1058E0006875696475206F6B0D0A000068756964DE
:1058F00075206661696C0D0A0000000010B5044651
:105900002DED028B90ED061AF1EE410A00F0D4FC69
:1059100084ED050AD4ED080ADFED1A1A30EE600AAC
:10592000D4ED070A20EEA11A60EEE10A00F0C4FCF3
:10593000D4ED080A30EE808A01F0EAFBB0EEC80A26
:1059400010EE100A104984ED048A84ED088A88421A
:1059500004DA012211469FED0D0A09E0B5EEC08A76
:10596000F1EE10FA01DB012101E04FF0FF310022DE
:10597000204600F0DDFCBDEC028BBDE8104001F0DC
:10598000E7BB00006F12833A0AD7233C00000000F7
:105990009FED061A60EE810A80EE201A00EE101AC2
:1059A000B8EE400A21EE000AFFF7A8BFDB0F49401E
:1059B00010B54FF0E020006902F066FA012803D02C
:1059C000BDE8104001F06ABE10BD000030B593B0D4
:1059D00030216846FAF731FE14210CA8FAF72DFEA3
:1059E0001D480025016841F080510160006800F009
:1059F000805011901948016841F4804101600068AD
:105A0000022400F4804011900120009000040190D5
:105A10008001CDE9064004200890A820CDE90904C2
:105A200007200B906846FDF73BFC08B172B6FEE715
:105A30000CA90F2081E831004FF4A0500F904FF4D3
:105A40008050109005210CA8FDF720FB002801D004
:105A500072B6FEE713B030BD40380240007000401F
:105A60000248016841F470010160704788ED00E070
:105A70000148FDF784BE00009C0200200148FDF7AC
:105A80007EBE0000E40200200148FDF778BE000061
:105A9000DC040020F0B50268274B284D284E294F22
:105AA000294C4FF0804C984209D0604507D0A8425D
:105AB00005D0B04203D0B84201D0A04204D122F0B8
:105AC000700E4A6842EA0E0298421BD0604519D017
:105AD000A84217D0B04215D0B84213D0A04211D07E
